{
  "_format": "hh-sol-artifact-1",
  "contractName": "PowerloomProtocolState",
  "sourceName": "contracts/ProtocolState.sol",
  "abi": [
    {
      "inputs": [],
      "stateMutability": "nonpayable",
      "type": "constructor"
    },
    {
      "inputs": [
        {
          "internalType": "address",
          "name": "target",
          "type": "address"
        }
      ],
      "name": "AddressEmptyCode",
      "type": "error"
    },
    {
      "inputs": [
        {
          "internalType": "address",
          "name": "implementation",
          "type": "address"
        }
      ],
      "name": "ERC1967InvalidImplementation",
      "type": "error"
    },
    {
      "inputs": [],
      "name": "ERC1967NonPayable",
      "type": "error"
    },
    {
      "inputs": [],
      "name": "FailedCall",
      "type": "error"
    },
    {
      "inputs": [],
      "name": "InvalidInitialization",
      "type": "error"
    },
    {
      "inputs": [],
      "name": "NotInitializing",
      "type": "error"
    },
    {
      "inputs": [
        {
          "internalType": "address",
          "name": "owner",
          "type": "address"
        }
      ],
      "name": "OwnableInvalidOwner",
      "type": "error"
    },
    {
      "inputs": [
        {
          "internalType": "address",
          "name": "account",
          "type": "address"
        }
      ],
      "name": "OwnableUnauthorizedAccount",
      "type": "error"
    },
    {
      "inputs": [],
      "name": "UUPSUnauthorizedCallContext",
      "type": "error"
    },
    {
      "inputs": [
        {
          "internalType": "bytes32",
          "name": "slot",
          "type": "bytes32"
        }
      ],
      "name": "UUPSUnsupportedProxiableUUID",
      "type": "error"
    },
    {
      "anonymous": false,
      "inputs": [
        {
          "indexed": true,
          "internalType": "address",
          "name": "dataMarketAddress",
          "type": "address"
        },
        {
          "indexed": true,
          "internalType": "uint256",
          "name": "epochId",
          "type": "uint256"
        },
        {
          "indexed": false,
          "internalType": "uint256",
          "name": "timestamp",
          "type": "uint256"
        }
      ],
      "name": "BatchSubmissionsCompleted",
      "type": "event"
    },
    {
      "anonymous": false,
      "inputs": [
        {
          "indexed": true,
          "internalType": "address",
          "name": "dataMarketAddress",
          "type": "address"
        },
        {
          "indexed": false,
          "internalType": "address",
          "name": "snapshotterAddress",
          "type": "address"
        },
        {
          "indexed": false,
          "internalType": "uint256",
          "name": "slotId",
          "type": "uint256"
        },
        {
          "indexed": false,
          "internalType": "uint256",
          "name": "dayId",
          "type": "uint256"
        },
        {
          "indexed": false,
          "internalType": "uint256",
          "name": "timestamp",
          "type": "uint256"
        }
      ],
      "name": "DailyTaskCompletedEvent",
      "type": "event"
    },
    {
      "anonymous": false,
      "inputs": [
        {
          "indexed": true,
          "internalType": "address",
          "name": "ownerAddress",
          "type": "address"
        },
        {
          "indexed": false,
          "internalType": "uint8",
          "name": "epochSize",
          "type": "uint8"
        },
        {
          "indexed": false,
          "internalType": "uint256",
          "name": "sourceChainId",
          "type": "uint256"
        },
        {
          "indexed": false,
          "internalType": "uint256",
          "name": "sourceChainBlockTime",
          "type": "uint256"
        },
        {
          "indexed": false,
          "internalType": "bool",
          "name": "useBlockNumberAsEpochId",
          "type": "bool"
        },
        {
          "indexed": false,
          "internalType": "address",
          "name": "protocolState",
          "type": "address"
        },
        {
          "indexed": false,
          "internalType": "address",
          "name": "dataMarketAddress",
          "type": "address"
        }
      ],
      "name": "DataMarketCreated",
      "type": "event"
    },
    {
      "anonymous": false,
      "inputs": [
        {
          "indexed": true,
          "internalType": "address",
          "name": "dataMarketAddress",
          "type": "address"
        },
        {
          "indexed": false,
          "internalType": "uint256",
          "name": "dayId",
          "type": "uint256"
        },
        {
          "indexed": false,
          "internalType": "uint256",
          "name": "timestamp",
          "type": "uint256"
        }
      ],
      "name": "DayStartedEvent",
      "type": "event"
    },
    {
      "anonymous": false,
      "inputs": [
        {
          "indexed": true,
          "internalType": "address",
          "name": "owner",
          "type": "address"
        },
        {
          "indexed": false,
          "internalType": "uint256",
          "name": "amount",
          "type": "uint256"
        }
      ],
      "name": "EmergencyWithdraw",
      "type": "event"
    },
    {
      "anonymous": false,
      "inputs": [
        {
          "indexed": true,
          "internalType": "address",
          "name": "dataMarketAddress",
          "type": "address"
        },
        {
          "indexed": true,
          "internalType": "uint256",
          "name": "epochId",
          "type": "uint256"
        },
        {
          "indexed": false,
          "internalType": "uint256",
          "name": "begin",
          "type": "uint256"
        },
        {
          "indexed": false,
          "internalType": "uint256",
          "name": "end",
          "type": "uint256"
        },
        {
          "indexed": false,
          "internalType": "uint256",
          "name": "timestamp",
          "type": "uint256"
        }
      ],
      "name": "EpochReleased",
      "type": "event"
    },
    {
      "anonymous": false,
      "inputs": [
        {
          "indexed": false,
          "internalType": "uint64",
          "name": "version",
          "type": "uint64"
        }
      ],
      "name": "Initialized",
      "type": "event"
    },
    {
      "anonymous": false,
      "inputs": [
        {
          "indexed": true,
          "internalType": "address",
          "name": "previousOwner",
          "type": "address"
        },
        {
          "indexed": true,
          "internalType": "address",
          "name": "newOwner",
          "type": "address"
        }
      ],
      "name": "OwnershipTransferStarted",
      "type": "event"
    },
    {
      "anonymous": false,
      "inputs": [
        {
          "indexed": true,
          "internalType": "address",
          "name": "previousOwner",
          "type": "address"
        },
        {
          "indexed": true,
          "internalType": "address",
          "name": "newOwner",
          "type": "address"
        }
      ],
      "name": "OwnershipTransferred",
      "type": "event"
    },
    {
      "anonymous": false,
      "inputs": [
        {
          "indexed": true,
          "internalType": "address",
          "name": "user",
          "type": "address"
        },
        {
          "indexed": false,
          "internalType": "uint256",
          "name": "amount",
          "type": "uint256"
        },
        {
          "indexed": false,
          "internalType": "uint256",
          "name": "timestamp",
          "type": "uint256"
        }
      ],
      "name": "RewardsClaimed",
      "type": "event"
    },
    {
      "anonymous": false,
      "inputs": [
        {
          "indexed": true,
          "internalType": "address",
          "name": "dataMarketAddress",
          "type": "address"
        },
        {
          "indexed": false,
          "internalType": "address",
          "name": "snapshotterAddress",
          "type": "address"
        },
        {
          "indexed": false,
          "internalType": "uint256",
          "name": "slotId",
          "type": "uint256"
        },
        {
          "indexed": false,
          "internalType": "uint256",
          "name": "dayId",
          "type": "uint256"
        },
        {
          "indexed": false,
          "internalType": "uint256",
          "name": "rewardPoints",
          "type": "uint256"
        },
        {
          "indexed": false,
          "internalType": "uint256",
          "name": "timestamp",
          "type": "uint256"
        }
      ],
      "name": "RewardsDistributedEvent",
      "type": "event"
    },
    {
      "anonymous": false,
      "inputs": [
        {
          "indexed": true,
          "internalType": "address",
          "name": "dataMarketAddress",
          "type": "address"
        },
        {
          "indexed": false,
          "internalType": "string",
          "name": "batchCid",
          "type": "string"
        },
        {
          "indexed": true,
          "internalType": "uint256",
          "name": "epochId",
          "type": "uint256"
        },
        {
          "indexed": false,
          "internalType": "uint256",
          "name": "timestamp",
          "type": "uint256"
        }
      ],
      "name": "SnapshotBatchSubmitted",
      "type": "event"
    },
    {
      "anonymous": false,
      "inputs": [
        {
          "indexed": true,
          "internalType": "address",
          "name": "dataMarketAddress",
          "type": "address"
        },
        {
          "indexed": true,
          "internalType": "uint256",
          "name": "epochId",
          "type": "uint256"
        },
        {
          "indexed": false,
          "internalType": "uint256",
          "name": "epochEnd",
          "type": "uint256"
        },
        {
          "indexed": false,
          "internalType": "string",
          "name": "projectId",
          "type": "string"
        },
        {
          "indexed": false,
          "internalType": "string",
          "name": "snapshotCid",
          "type": "string"
        },
        {
          "indexed": false,
          "internalType": "uint256",
          "name": "timestamp",
          "type": "uint256"
        }
      ],
      "name": "SnapshotFinalized",
      "type": "event"
    },
    {
      "anonymous": false,
      "inputs": [
        {
          "indexed": true,
          "internalType": "address",
          "name": "implementation",
          "type": "address"
        }
      ],
      "name": "Upgraded",
      "type": "event"
    },
    {
      "inputs": [
        {
          "internalType": "contract PowerloomDataMarket",
          "name": "dataMarket",
          "type": "address"
        }
      ],
      "name": "DAY_SIZE",
      "outputs": [
        {
          "internalType": "uint256",
          "name": "",
          "type": "uint256"
        }
      ],
      "stateMutability": "view",
      "type": "function"
    },
    {
      "inputs": [
        {
          "internalType": "contract PowerloomDataMarket",
          "name": "dataMarket",
          "type": "address"
        }
      ],
      "name": "EPOCH_SIZE",
      "outputs": [
        {
          "internalType": "uint8",
          "name": "",
          "type": "uint8"
        }
      ],
      "stateMutability": "view",
      "type": "function"
    },
    {
      "inputs": [
        {
          "internalType": "contract PowerloomDataMarket",
          "name": "dataMarket",
          "type": "address"
        }
      ],
      "name": "SOURCE_CHAIN_BLOCK_TIME",
      "outputs": [
        {
          "internalType": "uint256",
          "name": "",
          "type": "uint256"
        }
      ],
      "stateMutability": "view",
      "type": "function"
    },
    {
      "inputs": [
        {
          "internalType": "contract PowerloomDataMarket",
          "name": "dataMarket",
          "type": "address"
        }
      ],
      "name": "SOURCE_CHAIN_ID",
      "outputs": [
        {
          "internalType": "uint256",
          "name": "",
          "type": "uint256"
        }
      ],
      "stateMutability": "view",
      "type": "function"
    },
    {
      "inputs": [],
      "name": "UPGRADE_INTERFACE_VERSION",
      "outputs": [
        {
          "internalType": "string",
          "name": "",
          "type": "string"
        }
      ],
      "stateMutability": "view",
      "type": "function"
    },
    {
      "inputs": [
        {
          "internalType": "contract PowerloomDataMarket",
          "name": "dataMarket",
          "type": "address"
        }
      ],
      "name": "USE_BLOCK_NUMBER_AS_EPOCH_ID",
      "outputs": [
        {
          "internalType": "bool",
          "name": "",
          "type": "bool"
        }
      ],
      "stateMutability": "view",
      "type": "function"
    },
    {
      "inputs": [],
      "name": "acceptOwnership",
      "outputs": [],
      "stateMutability": "nonpayable",
      "type": "function"
    },
    {
      "inputs": [
        {
          "internalType": "address",
          "name": "addr",
          "type": "address"
        }
      ],
      "name": "allSnapshotters",
      "outputs": [
        {
          "internalType": "bool",
          "name": "",
          "type": "bool"
        }
      ],
      "stateMutability": "view",
      "type": "function"
    },
    {
      "inputs": [
        {
          "internalType": "contract PowerloomDataMarket",
          "name": "dataMarket",
          "type": "address"
        },
        {
          "internalType": "string",
          "name": "batchCid",
          "type": "string"
        }
      ],
      "name": "batchCidToProjects",
      "outputs": [
        {
          "internalType": "string[]",
          "name": "",
          "type": "string[]"
        }
      ],
      "stateMutability": "view",
      "type": "function"
    },
    {
      "inputs": [
        {
          "internalType": "contract PowerloomDataMarket",
          "name": "dataMarket",
          "type": "address"
        },
        {
          "internalType": "string",
          "name": "batchCid",
          "type": "string"
        }
      ],
      "name": "batchCidValidatorAttestation",
      "outputs": [
        {
          "internalType": "bytes32",
          "name": "",
          "type": "bytes32"
        }
      ],
      "stateMutability": "view",
      "type": "function"
    },
    {
      "inputs": [
        {
          "internalType": "contract PowerloomDataMarket",
          "name": "dataMarket",
          "type": "address"
        },
        {
          "internalType": "uint256",
          "name": "slotId",
          "type": "uint256"
        },
        {
          "internalType": "uint256",
          "name": "day",
          "type": "uint256"
        }
      ],
      "name": "checkSlotTaskStatusForDay",
      "outputs": [
        {
          "internalType": "bool",
          "name": "",
          "type": "bool"
        }
      ],
      "stateMutability": "view",
      "type": "function"
    },
    {
      "inputs": [
        {
          "internalType": "address",
          "name": "_user",
          "type": "address"
        }
      ],
      "name": "claimRewards",
      "outputs": [],
      "stateMutability": "nonpayable",
      "type": "function"
    },
    {
      "inputs": [
        {
          "internalType": "address",
          "name": "ownerAddress",
          "type": "address"
        },
        {
          "internalType": "uint8",
          "name": "epochSize",
          "type": "uint8"
        },
        {
          "internalType": "uint256",
          "name": "sourceChainId",
          "type": "uint256"
        },
        {
          "internalType": "uint256",
          "name": "sourceChainBlockTime",
          "type": "uint256"
        },
        {
          "internalType": "bool",
          "name": "useBlockNumberAsEpochId",
          "type": "bool"
        }
      ],
      "name": "createDataMarket",
      "outputs": [
        {
          "internalType": "address",
          "name": "",
          "type": "address"
        }
      ],
      "stateMutability": "nonpayable",
      "type": "function"
    },
    {
      "inputs": [
        {
          "internalType": "contract PowerloomDataMarket",
          "name": "dataMarket",
          "type": "address"
        }
      ],
      "name": "currentEpoch",
      "outputs": [
        {
          "internalType": "uint256",
          "name": "begin",
          "type": "uint256"
        },
        {
          "internalType": "uint256",
          "name": "end",
          "type": "uint256"
        },
        {
          "internalType": "uint256",
          "name": "epochId",
          "type": "uint256"
        }
      ],
      "stateMutability": "view",
      "type": "function"
    },
    {
      "inputs": [
        {
          "internalType": "contract PowerloomDataMarket",
          "name": "dataMarket",
          "type": "address"
        }
      ],
      "name": "dailySnapshotQuota",
      "outputs": [
        {
          "internalType": "uint256",
          "name": "",
          "type": "uint256"
        }
      ],
      "stateMutability": "view",
      "type": "function"
    },
    {
      "inputs": [],
      "name": "dataMarketCount",
      "outputs": [
        {
          "internalType": "uint256",
          "name": "",
          "type": "uint256"
        }
      ],
      "stateMutability": "view",
      "type": "function"
    },
    {
      "inputs": [
        {
          "internalType": "address",
          "name": "dataMarketAddress",
          "type": "address"
        }
      ],
      "name": "dataMarketEnabled",
      "outputs": [
        {
          "internalType": "bool",
          "name": "",
          "type": "bool"
        }
      ],
      "stateMutability": "view",
      "type": "function"
    },
    {
      "inputs": [],
      "name": "dataMarketFactory",
      "outputs": [
        {
          "internalType": "contract DataMarketFactory",
          "name": "",
          "type": "address"
        }
      ],
      "stateMutability": "view",
      "type": "function"
    },
    {
      "inputs": [
        {
          "internalType": "uint256",
          "name": "dataMarketId",
          "type": "uint256"
        }
      ],
      "name": "dataMarketIdToAddress",
      "outputs": [
        {
          "internalType": "address",
          "name": "dataMarketAddress",
          "type": "address"
        }
      ],
      "stateMutability": "view",
      "type": "function"
    },
    {
      "inputs": [
        {
          "internalType": "address",
          "name": "",
          "type": "address"
        }
      ],
      "name": "dataMarkets",
      "outputs": [
        {
          "internalType": "address",
          "name": "ownerAddress",
          "type": "address"
        },
        {
          "internalType": "uint8",
          "name": "epochSize",
          "type": "uint8"
        },
        {
          "internalType": "uint256",
          "name": "sourceChainId",
          "type": "uint256"
        },
        {
          "internalType": "uint256",
          "name": "sourceChainBlockTime",
          "type": "uint256"
        },
        {
          "internalType": "bool",
          "name": "useBlockNumberAsEpochId",
          "type": "bool"
        },
        {
          "internalType": "bool",
          "name": "enabled",
          "type": "bool"
        },
        {
          "internalType": "address",
          "name": "dataMarketAddress",
          "type": "address"
        },
        {
          "internalType": "uint256",
          "name": "createdAt",
          "type": "uint256"
        }
      ],
      "stateMutability": "view",
      "type": "function"
    },
    {
      "inputs": [
        {
          "internalType": "contract PowerloomDataMarket",
          "name": "dataMarket",
          "type": "address"
        }
      ],
      "name": "dayCounter",
      "outputs": [
        {
          "internalType": "uint256",
          "name": "",
          "type": "uint256"
        }
      ],
      "stateMutability": "view",
      "type": "function"
    },
    {
      "inputs": [
        {
          "internalType": "contract PowerloomDataMarket",
          "name": "dataMarket",
          "type": "address"
        }
      ],
      "name": "deploymentBlockNumber",
      "outputs": [
        {
          "internalType": "uint256",
          "name": "",
          "type": "uint256"
        }
      ],
      "stateMutability": "view",
      "type": "function"
    },
    {
      "inputs": [],
      "name": "emergencyWithdraw",
      "outputs": [],
      "stateMutability": "nonpayable",
      "type": "function"
    },
    {
      "inputs": [],
      "name": "enabledNodeCount",
      "outputs": [
        {
          "internalType": "uint256",
          "name": "",
          "type": "uint256"
        }
      ],
      "stateMutability": "view",
      "type": "function"
    },
    {
      "inputs": [
        {
          "internalType": "contract PowerloomDataMarket",
          "name": "dataMarket",
          "type": "address"
        },
        {
          "internalType": "uint256",
          "name": "epochId",
          "type": "uint256"
        }
      ],
      "name": "endBatchSubmissions",
      "outputs": [],
      "stateMutability": "nonpayable",
      "type": "function"
    },
    {
      "inputs": [
        {
          "internalType": "contract PowerloomDataMarket",
          "name": "dataMarket",
          "type": "address"
        },
        {
          "internalType": "uint256",
          "name": "epochId",
          "type": "uint256"
        }
      ],
      "name": "epochIdToBatchCids",
      "outputs": [
        {
          "internalType": "string[]",
          "name": "",
          "type": "string[]"
        }
      ],
      "stateMutability": "view",
      "type": "function"
    },
    {
      "inputs": [
        {
          "internalType": "contract PowerloomDataMarket",
          "name": "dataMarket",
          "type": "address"
        },
        {
          "internalType": "uint256",
          "name": "epochId",
          "type": "uint256"
        }
      ],
      "name": "epochInfo",
      "outputs": [
        {
          "internalType": "uint256",
          "name": "timestamp",
          "type": "uint256"
        },
        {
          "internalType": "uint256",
          "name": "blocknumber",
          "type": "uint256"
        },
        {
          "internalType": "uint256",
          "name": "epochEnd",
          "type": "uint256"
        }
      ],
      "stateMutability": "view",
      "type": "function"
    },
    {
      "inputs": [
        {
          "internalType": "contract PowerloomDataMarket",
          "name": "dataMarket",
          "type": "address"
        }
      ],
      "name": "epochManager",
      "outputs": [
        {
          "internalType": "address",
          "name": "",
          "type": "address"
        }
      ],
      "stateMutability": "view",
      "type": "function"
    },
    {
      "inputs": [
        {
          "internalType": "contract PowerloomDataMarket",
          "name": "dataMarket",
          "type": "address"
        }
      ],
      "name": "epochsInADay",
      "outputs": [
        {
          "internalType": "uint256",
          "name": "",
          "type": "uint256"
        }
      ],
      "stateMutability": "view",
      "type": "function"
    },
    {
      "inputs": [
        {
          "internalType": "contract PowerloomDataMarket",
          "name": "dataMarket",
          "type": "address"
        },
        {
          "internalType": "uint256",
          "name": "begin",
          "type": "uint256"
        },
        {
          "internalType": "uint256",
          "name": "end",
          "type": "uint256"
        }
      ],
      "name": "forceSkipEpoch",
      "outputs": [],
      "stateMutability": "nonpayable",
      "type": "function"
    },
    {
      "inputs": [
        {
          "internalType": "contract PowerloomDataMarket",
          "name": "dataMarket",
          "type": "address"
        },
        {
          "internalType": "uint256",
          "name": "epochId",
          "type": "uint256"
        }
      ],
      "name": "getActiveValidators",
      "outputs": [
        {
          "internalType": "uint256[]",
          "name": "",
          "type": "uint256[]"
        }
      ],
      "stateMutability": "view",
      "type": "function"
    },
    {
      "inputs": [
        {
          "internalType": "contract PowerloomDataMarket",
          "name": "dataMarket",
          "type": "address"
        }
      ],
      "name": "getDataMarketSubmissionWindowConfig",
      "outputs": [
        {
          "internalType": "uint256",
          "name": "_snapshotCommitWindow",
          "type": "uint256"
        },
        {
          "internalType": "uint256",
          "name": "_snapshotRevealWindow",
          "type": "uint256"
        },
        {
          "internalType": "uint256",
          "name": "_validatorVoteCommitWindow",
          "type": "uint256"
        },
        {
          "internalType": "uint256",
          "name": "_validatorVoteRevealWindow",
          "type": "uint256"
        },
        {
          "internalType": "uint256",
          "name": "_p1submissionWindow",
          "type": "uint256"
        },
        {
          "internalType": "uint256",
          "name": "_pNsubmissionWindow",
          "type": "uint256"
        }
      ],
      "stateMutability": "view",
      "type": "function"
    },
    {
      "inputs": [
        {
          "internalType": "contract PowerloomDataMarket",
          "name": "dataMarket",
          "type": "address"
        }
      ],
      "name": "getEpochManager",
      "outputs": [
        {
          "internalType": "address",
          "name": "",
          "type": "address"
        }
      ],
      "stateMutability": "view",
      "type": "function"
    },
    {
      "inputs": [
        {
          "internalType": "contract PowerloomDataMarket",
          "name": "dataMarket",
          "type": "address"
        }
      ],
      "name": "getLatestEpochWithPriority",
      "outputs": [
        {
          "internalType": "uint256",
          "name": "",
          "type": "uint256"
        }
      ],
      "stateMutability": "view",
      "type": "function"
    },
    {
      "inputs": [
        {
          "internalType": "contract PowerloomDataMarket",
          "name": "dataMarket",
          "type": "address"
        }
      ],
      "name": "getOldestEpochWithPriority",
      "outputs": [
        {
          "internalType": "uint256",
          "name": "",
          "type": "uint256"
        }
      ],
      "stateMutability": "view",
      "type": "function"
    },
    {
      "inputs": [
        {
          "internalType": "contract PowerloomDataMarket",
          "name": "dataMarket",
          "type": "address"
        },
        {
          "internalType": "uint256",
          "name": "epochId",
          "type": "uint256"
        }
      ],
      "name": "getPriorities",
      "outputs": [
        {
          "components": [
            {
              "internalType": "uint256",
              "name": "validatorIndex",
              "type": "uint256"
            },
            {
              "internalType": "uint256",
              "name": "priority",
              "type": "uint256"
            }
          ],
          "internalType": "struct ValidatorPriorityAssigner.ValidatorIndexPriority[]",
          "name": "",
          "type": "tuple[]"
        }
      ],
      "stateMutability": "view",
      "type": "function"
    },
    {
      "inputs": [
        {
          "internalType": "contract PowerloomDataMarket",
          "name": "dataMarket",
          "type": "address"
        },
        {
          "internalType": "uint256",
          "name": "epochId",
          "type": "uint256"
        },
        {
          "internalType": "uint256",
          "name": "validatorId",
          "type": "uint256"
        }
      ],
      "name": "getPriority",
      "outputs": [
        {
          "internalType": "uint256",
          "name": "",
          "type": "uint256"
        }
      ],
      "stateMutability": "view",
      "type": "function"
    },
    {
      "inputs": [
        {
          "internalType": "contract PowerloomDataMarket",
          "name": "dataMarket",
          "type": "address"
        },
        {
          "internalType": "uint256",
          "name": "epochId",
          "type": "uint256"
        },
        {
          "internalType": "uint256",
          "name": "validatorIndex",
          "type": "uint256"
        }
      ],
      "name": "getPriorityByIndex",
      "outputs": [
        {
          "internalType": "uint256",
          "name": "",
          "type": "uint256"
        }
      ],
      "stateMutability": "view",
      "type": "function"
    },
    {
      "inputs": [
        {
          "internalType": "contract PowerloomDataMarket",
          "name": "dataMarket",
          "type": "address"
        },
        {
          "internalType": "uint256",
          "name": "slotId",
          "type": "uint256"
        }
      ],
      "name": "getSlotInfo",
      "outputs": [
        {
          "components": [
            {
              "internalType": "uint256",
              "name": "slotId",
              "type": "uint256"
            },
            {
              "internalType": "address",
              "name": "snapshotterAddress",
              "type": "address"
            },
            {
              "internalType": "uint256",
              "name": "rewardPoints",
              "type": "uint256"
            },
            {
              "internalType": "uint256",
              "name": "currentDaySnapshotCount",
              "type": "uint256"
            }
          ],
          "internalType": "struct PowerloomDataMarket.SlotInfo",
          "name": "",
          "type": "tuple"
        }
      ],
      "stateMutability": "view",
      "type": "function"
    },
    {
      "inputs": [
        {
          "internalType": "uint256",
          "name": "slotId",
          "type": "uint256"
        }
      ],
      "name": "getSlotRewards",
      "outputs": [
        {
          "internalType": "uint256",
          "name": "rewards",
          "type": "uint256"
        }
      ],
      "stateMutability": "view",
      "type": "function"
    },
    {
      "inputs": [],
      "name": "getTotalNodeCount",
      "outputs": [
        {
          "internalType": "uint256",
          "name": "",
          "type": "uint256"
        }
      ],
      "stateMutability": "view",
      "type": "function"
    },
    {
      "inputs": [],
      "name": "getTotalSnapshotterCount",
      "outputs": [
        {
          "internalType": "uint256",
          "name": "",
          "type": "uint256"
        }
      ],
      "stateMutability": "view",
      "type": "function"
    },
    {
      "inputs": [
        {
          "internalType": "contract PowerloomDataMarket",
          "name": "dataMarket",
          "type": "address"
        },
        {
          "internalType": "uint256",
          "name": "epochId",
          "type": "uint256"
        }
      ],
      "name": "getValidatorCount",
      "outputs": [
        {
          "internalType": "uint256",
          "name": "",
          "type": "uint256"
        }
      ],
      "stateMutability": "view",
      "type": "function"
    },
    {
      "inputs": [
        {
          "internalType": "address",
          "name": "initialOwner",
          "type": "address"
        },
        {
          "internalType": "address",
          "name": "_snapshotterState",
          "type": "address"
        },
        {
          "internalType": "address",
          "name": "_dataMarketFactory",
          "type": "address"
        },
        {
          "internalType": "address",
          "name": "_validatorState",
          "type": "address"
        },
        {
          "internalType": "address",
          "name": "_validatorPriorityAssigner",
          "type": "address"
        }
      ],
      "name": "initialize",
      "outputs": [],
      "stateMutability": "nonpayable",
      "type": "function"
    },
    {
      "inputs": [
        {
          "internalType": "contract PowerloomDataMarket",
          "name": "dataMarket",
          "type": "address"
        },
        {
          "internalType": "string",
          "name": "projectId",
          "type": "string"
        }
      ],
      "name": "lastFinalizedSnapshot",
      "outputs": [
        {
          "internalType": "uint256",
          "name": "",
          "type": "uint256"
        }
      ],
      "stateMutability": "view",
      "type": "function"
    },
    {
      "inputs": [
        {
          "internalType": "contract PowerloomDataMarket",
          "name": "dataMarket",
          "type": "address"
        },
        {
          "internalType": "uint256",
          "name": "_dayCounter",
          "type": "uint256"
        }
      ],
      "name": "loadCurrentDay",
      "outputs": [],
      "stateMutability": "nonpayable",
      "type": "function"
    },
    {
      "inputs": [
        {
          "internalType": "contract PowerloomDataMarket",
          "name": "dataMarket",
          "type": "address"
        },
        {
          "internalType": "uint256",
          "name": "slotId",
          "type": "uint256"
        },
        {
          "internalType": "uint256",
          "name": "dayId",
          "type": "uint256"
        },
        {
          "internalType": "uint256",
          "name": "snapshotCount",
          "type": "uint256"
        }
      ],
      "name": "loadSlotSubmissions",
      "outputs": [],
      "stateMutability": "nonpayable",
      "type": "function"
    },
    {
      "inputs": [
        {
          "internalType": "contract PowerloomDataMarket",
          "name": "dataMarket",
          "type": "address"
        },
        {
          "internalType": "string",
          "name": "projectId",
          "type": "string"
        },
        {
          "internalType": "uint256",
          "name": "epochId",
          "type": "uint256"
        }
      ],
      "name": "maxSnapshotsCid",
      "outputs": [
        {
          "internalType": "string",
          "name": "",
          "type": "string"
        },
        {
          "internalType": "enum PowerloomDataMarket.SnapshotStatus",
          "name": "",
          "type": "uint8"
        }
      ],
      "stateMutability": "view",
      "type": "function"
    },
    {
      "inputs": [],
      "name": "owner",
      "outputs": [
        {
          "internalType": "address",
          "name": "",
          "type": "address"
        }
      ],
      "stateMutability": "view",
      "type": "function"
    },
    {
      "inputs": [],
      "name": "pendingOwner",
      "outputs": [
        {
          "internalType": "address",
          "name": "",
          "type": "address"
        }
      ],
      "stateMutability": "view",
      "type": "function"
    },
    {
      "inputs": [
        {
          "internalType": "contract PowerloomDataMarket",
          "name": "dataMarket",
          "type": "address"
        },
        {
          "internalType": "string",
          "name": "projectId",
          "type": "string"
        }
      ],
      "name": "projectFirstEpochId",
      "outputs": [
        {
          "internalType": "uint256",
          "name": "",
          "type": "uint256"
        }
      ],
      "stateMutability": "view",
      "type": "function"
    },
    {
      "inputs": [],
      "name": "proxiableUUID",
      "outputs": [
        {
          "internalType": "bytes32",
          "name": "",
          "type": "bytes32"
        }
      ],
      "stateMutability": "view",
      "type": "function"
    },
    {
      "inputs": [
        {
          "internalType": "contract PowerloomDataMarket",
          "name": "dataMarket",
          "type": "address"
        },
        {
          "internalType": "uint256",
          "name": "begin",
          "type": "uint256"
        },
        {
          "internalType": "uint256",
          "name": "end",
          "type": "uint256"
        }
      ],
      "name": "releaseEpoch",
      "outputs": [],
      "stateMutability": "nonpayable",
      "type": "function"
    },
    {
      "inputs": [],
      "name": "renounceOwnership",
      "outputs": [],
      "stateMutability": "nonpayable",
      "type": "function"
    },
    {
      "inputs": [
        {
          "internalType": "contract PowerloomDataMarket",
          "name": "dataMarket",
          "type": "address"
        }
      ],
      "name": "rewardPoolSize",
      "outputs": [
        {
          "internalType": "uint256",
          "name": "",
          "type": "uint256"
        }
      ],
      "stateMutability": "view",
      "type": "function"
    },
    {
      "inputs": [
        {
          "internalType": "contract PowerloomDataMarket",
          "name": "dataMarket",
          "type": "address"
        }
      ],
      "name": "rewardsEnabled",
      "outputs": [
        {
          "internalType": "bool",
          "name": "",
          "type": "bool"
        }
      ],
      "stateMutability": "view",
      "type": "function"
    },
    {
      "inputs": [
        {
          "internalType": "contract PowerloomDataMarket",
          "name": "dataMarket",
          "type": "address"
        },
        {
          "internalType": "uint256",
          "name": "slotId",
          "type": "uint256"
        }
      ],
      "name": "slotRewardPoints",
      "outputs": [
        {
          "internalType": "uint256",
          "name": "",
          "type": "uint256"
        }
      ],
      "stateMutability": "view",
      "type": "function"
    },
    {
      "inputs": [
        {
          "internalType": "uint256",
          "name": "",
          "type": "uint256"
        }
      ],
      "name": "slotRewards",
      "outputs": [
        {
          "internalType": "uint256",
          "name": "",
          "type": "uint256"
        }
      ],
      "stateMutability": "view",
      "type": "function"
    },
    {
      "inputs": [
        {
          "internalType": "uint256",
          "name": "slotId",
          "type": "uint256"
        }
      ],
      "name": "slotSnapshotterMapping",
      "outputs": [
        {
          "internalType": "address",
          "name": "",
          "type": "address"
        }
      ],
      "stateMutability": "view",
      "type": "function"
    },
    {
      "inputs": [
        {
          "internalType": "contract PowerloomDataMarket",
          "name": "dataMarket",
          "type": "address"
        },
        {
          "internalType": "uint256",
          "name": "slotId",
          "type": "uint256"
        },
        {
          "internalType": "uint256",
          "name": "dayId",
          "type": "uint256"
        }
      ],
      "name": "slotSubmissionCount",
      "outputs": [
        {
          "internalType": "uint256",
          "name": "",
          "type": "uint256"
        }
      ],
      "stateMutability": "view",
      "type": "function"
    },
    {
      "inputs": [
        {
          "internalType": "contract PowerloomDataMarket",
          "name": "dataMarket",
          "type": "address"
        },
        {
          "internalType": "string",
          "name": "projectId",
          "type": "string"
        },
        {
          "internalType": "uint256",
          "name": "epochId",
          "type": "uint256"
        }
      ],
      "name": "snapshotStatus",
      "outputs": [
        {
          "internalType": "enum PowerloomDataMarket.SnapshotStatus",
          "name": "status",
          "type": "uint8"
        },
        {
          "internalType": "string",
          "name": "snapshotCid",
          "type": "string"
        },
        {
          "internalType": "uint256",
          "name": "timestamp",
          "type": "uint256"
        }
      ],
      "stateMutability": "view",
      "type": "function"
    },
    {
      "inputs": [],
      "name": "snapshotterState",
      "outputs": [
        {
          "internalType": "contract PowerloomNodes",
          "name": "",
          "type": "address"
        }
      ],
      "stateMutability": "view",
      "type": "function"
    },
    {
      "inputs": [
        {
          "internalType": "contract PowerloomDataMarket",
          "name": "dataMarket",
          "type": "address"
        },
        {
          "internalType": "string",
          "name": "batchCid",
          "type": "string"
        },
        {
          "internalType": "uint256",
          "name": "epochId",
          "type": "uint256"
        },
        {
          "internalType": "string[]",
          "name": "projectIds",
          "type": "string[]"
        },
        {
          "internalType": "string[]",
          "name": "snapshotCids",
          "type": "string[]"
        },
        {
          "internalType": "bytes32",
          "name": "finalizedCidsRootHash",
          "type": "bytes32"
        }
      ],
      "name": "submitSubmissionBatch",
      "outputs": [],
      "stateMutability": "nonpayable",
      "type": "function"
    },
    {
      "inputs": [
        {
          "internalType": "address",
          "name": "dataMarketAddress",
          "type": "address"
        },
        {
          "internalType": "bool",
          "name": "enabled",
          "type": "bool"
        }
      ],
      "name": "toggleDataMarket",
      "outputs": [],
      "stateMutability": "nonpayable",
      "type": "function"
    },
    {
      "inputs": [
        {
          "internalType": "contract PowerloomDataMarket",
          "name": "dataMarket",
          "type": "address"
        }
      ],
      "name": "toggleRewards",
      "outputs": [],
      "stateMutability": "nonpayable",
      "type": "function"
    },
    {
      "inputs": [
        {
          "internalType": "address",
          "name": "newOwner",
          "type": "address"
        }
      ],
      "name": "transferOwnership",
      "outputs": [],
      "stateMutability": "nonpayable",
      "type": "function"
    },
    {
      "inputs": [
        {
          "internalType": "contract PowerloomDataMarket",
          "name": "dataMarket",
          "type": "address"
        },
        {
          "internalType": "uint256",
          "name": "_dailySnapshotQuota",
          "type": "uint256"
        }
      ],
      "name": "updateDailySnapshotQuota",
      "outputs": [],
      "stateMutability": "nonpayable",
      "type": "function"
    },
    {
      "inputs": [
        {
          "internalType": "address",
          "name": "_address",
          "type": "address"
        }
      ],
      "name": "updateDataMarketFactory",
      "outputs": [],
      "stateMutability": "nonpayable",
      "type": "function"
    },
    {
      "inputs": [
        {
          "internalType": "contract PowerloomDataMarket",
          "name": "dataMarket",
          "type": "address"
        },
        {
          "internalType": "uint256",
          "name": "_snapshotCommitWindow",
          "type": "uint256"
        },
        {
          "internalType": "uint256",
          "name": "_snapshotRevealWindow",
          "type": "uint256"
        },
        {
          "internalType": "uint256",
          "name": "_validatorVoteCommitWindow",
          "type": "uint256"
        },
        {
          "internalType": "uint256",
          "name": "_validatorVoteRevealWindow",
          "type": "uint256"
        },
        {
          "internalType": "uint256",
          "name": "_p1submissionWindow",
          "type": "uint256"
        },
        {
          "internalType": "uint256",
          "name": "_pNsubmissionWindow",
          "type": "uint256"
        }
      ],
      "name": "updateDataMarketSubmissionWindowConfig",
      "outputs": [],
      "stateMutability": "nonpayable",
      "type": "function"
    },
    {
      "inputs": [
        {
          "internalType": "contract PowerloomDataMarket",
          "name": "dataMarket",
          "type": "address"
        },
        {
          "internalType": "address",
          "name": "_address",
          "type": "address"
        }
      ],
      "name": "updateEpochManager",
      "outputs": [],
      "stateMutability": "nonpayable",
      "type": "function"
    },
    {
      "inputs": [
        {
          "internalType": "contract PowerloomDataMarket",
          "name": "dataMarket",
          "type": "address"
        },
        {
          "internalType": "uint256",
          "name": "newRewardPoolSize",
          "type": "uint256"
        }
      ],
      "name": "updateRewardPoolSize",
      "outputs": [],
      "stateMutability": "nonpayable",
      "type": "function"
    },
    {
      "inputs": [
        {
          "internalType": "contract PowerloomDataMarket",
          "name": "dataMarket",
          "type": "address"
        },
        {
          "internalType": "uint256[]",
          "name": "slotIds",
          "type": "uint256[]"
        },
        {
          "internalType": "uint256[]",
          "name": "submissionsList",
          "type": "uint256[]"
        },
        {
          "internalType": "uint256",
          "name": "day",
          "type": "uint256"
        },
        {
          "internalType": "uint256",
          "name": "eligibleNodes",
          "type": "uint256"
        }
      ],
      "name": "updateRewards",
      "outputs": [],
      "stateMutability": "nonpayable",
      "type": "function"
    },
    {
      "inputs": [
        {
          "internalType": "address",
          "name": "_address",
          "type": "address"
        }
      ],
      "name": "updateSnapshotterState",
      "outputs": [],
      "stateMutability": "nonpayable",
      "type": "function"
    },
    {
      "inputs": [
        {
          "internalType": "address",
          "name": "_address",
          "type": "address"
        }
      ],
      "name": "updateValidatorPriorityAssigner",
      "outputs": [],
      "stateMutability": "nonpayable",
      "type": "function"
    },
    {
      "inputs": [
        {
          "internalType": "address",
          "name": "_address",
          "type": "address"
        }
      ],
      "name": "updateValidatorState",
      "outputs": [],
      "stateMutability": "nonpayable",
      "type": "function"
    },
    {
      "inputs": [
        {
          "internalType": "address",
          "name": "newImplementation",
          "type": "address"
        },
        {
          "internalType": "bytes",
          "name": "data",
          "type": "bytes"
        }
      ],
      "name": "upgradeToAndCall",
      "outputs": [],
      "stateMutability": "payable",
      "type": "function"
    },
    {
      "inputs": [
        {
          "internalType": "address",
          "name": "",
          "type": "address"
        }
      ],
      "name": "userInfo",
      "outputs": [
        {
          "internalType": "uint256",
          "name": "totalRewards",
          "type": "uint256"
        },
        {
          "internalType": "uint256",
          "name": "totalClaimed",
          "type": "uint256"
        },
        {
          "internalType": "uint256",
          "name": "lastClaimed",
          "type": "uint256"
        },
        {
          "internalType": "uint256",
          "name": "lastUpdated",
          "type": "uint256"
        }
      ],
      "stateMutability": "view",
      "type": "function"
    },
    {
      "inputs": [],
      "name": "validatorPriorityAssigner",
      "outputs": [
        {
          "internalType": "contract ValidatorPriorityAssigner",
          "name": "",
          "type": "address"
        }
      ],
      "stateMutability": "view",
      "type": "function"
    },
    {
      "inputs": [],
      "name": "validatorState",
      "outputs": [
        {
          "internalType": "contract PowerloomValidatorNodes",
          "name": "",
          "type": "address"
        }
      ],
      "stateMutability": "view",
      "type": "function"
    },
    {
      "stateMutability": "payable",
      "type": "receive"
    }
  ],
  "bytecode": "0x60a0604052306080523480156200001557600080fd5b506200002062000026565b620000da565b7ff0c57e16840df040f15088dc2f81fe391c3923bec73e23a9662efc9c229c6a00805468010000000000000000900460ff1615620000775760405163f92ee8a960e01b815260040160405180910390fd5b80546001600160401b0390811614620000d75780546001600160401b0319166001600160401b0390811782556040519081527fc7f505b2f371ae2175ee4913f4499e1f2633a7b5936321eed1cdaeb6115181d29060200160405180910390a15b50565b608051614b8262000104600039600081816134b4015281816134dd01526136230152614b826000f3fe60806040526004361061046c5760003560e01c80636e81f2341161024a578063c12c2aa911610139578063e06a9ecb116100b6578063ef829a3d1161007a578063ef829a3d14610f88578063f05aa72414610f9e578063f2fde38b14610fbe578063f5fd226a14610fde578063f944c17c14610ffe57600080fd5b8063e06a9ecb14610ef3578063e30c397814610f13578063e59ee0c614610f28578063eb4c8b8914610f48578063ef5cfb8c14610f6857600080fd5b8063ce7b6afb116100fd578063ce7b6afb14610e69578063cf396cbf14610e7e578063d9ad5d2e14610e9e578063db2e21bc14610ebe578063ded2465b14610ed357600080fd5b8063c12c2aa914610d7b578063c367e24414610dad578063c91dad3414610e09578063c9742dc114610e29578063c9ab0c8314610e4957600080fd5b80638da5cb5b116101c7578063a1ac8af01161018b578063a1ac8af014610cbd578063ad3cb1cc14610cdd578063b34aebca14610d1b578063b48753eb14610d3b578063c00d0f9c14610d5b57600080fd5b80638da5cb5b14610c2657806392ae6f6614610c3b578063948a463e14610c505780639a2458a614610c705780639ab1013d14610c9057600080fd5b806379ba50971161020e57806379ba509714610b835780637e9ce89214610b985780637f9ee95014610bc657806383450d2614610be6578063865fb4eb14610c0657600080fd5b80636e81f23414610acd5780636ee55d7314610aed578063715018a614610b0d5780637174664414610b2257806375fd5c7c14610b4257600080fd5b806329aa6a6b1161036657806352d1902d116102e35780635a5c908b116102a75780635a5c908b146109885780635f9abf70146109a857806368af906d14610a6d57806369f1c10e14610a8d5780636ce4f26c14610aad57600080fd5b806352d1902d146108d95780635350fa81146108ee57806353e282691461090e57806356d8ba061461093b57806359c60b301461096857600080fd5b806340e297071161032a57806340e29707146108515780634110fe25146108715780634242614c146108865780634626f547146108a65780634f1ef286146108c657600080fd5b806329aa6a6b146107875780632edb1d00146107b457806332812af6146107e1578063342050cc146108015780633d15d0f41461082157600080fd5b80630d5a7a52116103f45780631c906e80116103b85780631c906e80146106c25780631d9fea03146106e25780631dbc586b146107185780631f5885881461073857806327856ff31461076757600080fd5b80630d5a7a52146105c85780630f34e6a9146106005780631459457a1461062057806317010b25146106405780631959a0021461066057600080fd5b80630736e19f1161043b5780630736e19f1461050b57806309517cb614610546578063095cb210146105685780630a1b7227146105885780630ad5590a146105a857600080fd5b8063010dc75b1461047857806302143405146104ab57806304a0a5bb146104cb57806306b8d494146104eb57600080fd5b3661047357005b600080fd5b34801561048457600080fd5b50610498610493366004613bab565b61104b565b6040519081526020015b60405180910390f35b3480156104b757600080fd5b506104986104c6366004613be0565b6110d3565b3480156104d757600080fd5b506104986104e6366004613be0565b61113d565b3480156104f757600080fd5b50610498610506366004613be0565b61117d565b34801561051757600080fd5b5061052b610526366004613be0565b6111bd565b604080519384526020840192909252908201526060016104a2565b34801561055257600080fd5b50610566610561366004613bab565b611231565b005b34801561057457600080fd5b50610498610583366004613be0565b611479565b34801561059457600080fd5b506104986105a3366004613be0565b6114b9565b3480156105b457600080fd5b506104986105c3366004613bab565b6114f9565b3480156105d457600080fd5b506105e86105e3366004613be0565b61153a565b6040516001600160a01b0390911681526020016104a2565b34801561060c57600080fd5b5061049861061b366004613be0565b61159e565b34801561062c57600080fd5b5061056661063b366004613bfd565b6115de565b34801561064c57600080fd5b5061056661065b366004613be0565b6117e3565b34801561066c57600080fd5b506106a261067b366004613be0565b60086020526000908152604090208054600182015460028301546003909301549192909184565b6040805194855260208501939093529183015260608201526080016104a2565b3480156106ce57600080fd5b506104986106dd366004613c6e565b611833565b3480156106ee57600080fd5b506105e86106fd366004613c9a565b6006602052600090815260409020546001600160a01b031681565b34801561072457600080fd5b506105e8610733366004613cd0565b6118aa565b34801561074457600080fd5b50610758610753366004613e14565b611ae0565b6040516104a293929190613ede565b34801561077357600080fd5b50610566610782366004613bab565b611b68565b34801561079357600080fd5b506107a76107a2366004613c6e565b611ba7565b6040516104a29190613f0e565b3480156107c057600080fd5b506107d46107cf366004613c6e565b611c21565b6040516104a29190613fac565b3480156107ed57600080fd5b506105666107fc366004613be0565b611c92565b34801561080d57600080fd5b506000546105e8906001600160a01b031681565b34801561082d57600080fd5b5061084161083c366004613be0565b611ce2565b60405190151581526020016104a2565b34801561085d57600080fd5b5061049861086c366004613be0565b611d51565b34801561087d57600080fd5b50610498611d91565b34801561089257600080fd5b506104986108a1366004613fbf565b611e0e565b3480156108b257600080fd5b506104986108c1366004613be0565b611e3d565b6105666108d436600461400e565b611e89565b3480156108e557600080fd5b50610498611ea8565b3480156108fa57600080fd5b50610498610909366004613be0565b611ec5565b34801561091a57600080fd5b50610498610929366004613c9a565b60046020526000908152604090205481565b34801561094757600080fd5b5061095b610956366004613c6e565b611f05565b6040516104a29190614067565b34801561097457600080fd5b50610566610983366004613c6e565b611f7f565b34801561099457600080fd5b506001546105e8906001600160a01b031681565b3480156109b457600080fd5b50610a1b6109c3366004613be0565b600760205260009081526040902080546001820154600283015460038401546004909401546001600160a01b0380851695600160a01b90950460ff908116958181169361010082049092169262010000909104169088565b604080516001600160a01b03998a16815260ff909816602089015287019590955260608601939093529015156080850152151560a08401529290921660c082015260e0810191909152610100016104a2565b348015610a7957600080fd5b50610566610a88366004614143565b611fe4565b348015610a9957600080fd5b50610498610aa8366004613fbf565b6125b8565b348015610ab957600080fd5b506105e8610ac8366004613be0565b6125e6565b348015610ad957600080fd5b50610566610ae83660046141ca565b612626565b348015610af957600080fd5b50610566610b08366004613c6e565b61265a565b348015610b1957600080fd5b50610566612793565b348015610b2e57600080fd5b50610566610b3d366004613be0565b6127a7565b348015610b4e57600080fd5b50610841610b5d366004613be0565b6001600160a01b0316600090815260076020526040902060030154610100900460ff1690565b348015610b8f57600080fd5b506105666127fc565b348015610ba457600080fd5b50610bb8610bb3366004613e14565b612844565b6040516104a2929190614203565b348015610bd257600080fd5b50610498610be1366004613bab565b6128c7565b348015610bf257600080fd5b50610841610c01366004613be0565b6128fe565b348015610c1257600080fd5b50610841610c21366004613be0565b61293e565b348015610c3257600080fd5b506105e861297e565b348015610c4757600080fd5b506104986129b3565b348015610c5c57600080fd5b506105e8610c6b366004613c9a565b612a07565b348015610c7c57600080fd5b50610498610c8b366004613c6e565b612a51565b348015610c9c57600080fd5b50610498610cab366004613c9a565b60009081526004602052604090205490565b348015610cc957600080fd5b50610566610cd8366004614225565b612a81565b348015610ce957600080fd5b50610d0e604051806040016040528060058152602001640352e302e360dc1b81525081565b6040516104a29190614260565b348015610d2757600080fd5b50610566610d36366004614273565b612af5565b348015610d4757600080fd5b50610566610d56366004613be0565b612b31565b348015610d6757600080fd5b50610841610d76366004613bab565b612b81565b348015610d8757600080fd5b50610d9b610d96366004613be0565b612bf4565b60405160ff90911681526020016104a2565b348015610db957600080fd5b50610dcd610dc8366004613c6e565b612c58565b6040516104a29190815181526020808301516001600160a01b031690820152604080830151908201526060918201519181019190915260800190565b348015610e1557600080fd5b50610498610e24366004613be0565b612cf5565b348015610e3557600080fd5b50610566610e44366004613be0565b612d28565b348015610e5557600080fd5b5061052b610e64366004613c6e565b612d78565b348015610e7557600080fd5b50610498612df9565b348015610e8a57600080fd5b50610566610e99366004614320565b612e4d565b348015610eaa57600080fd5b50610566610eb9366004613c6e565b612f99565b348015610eca57600080fd5b50610566612fcc565b348015610edf57600080fd5b50610498610eee366004613fbf565b61309e565b348015610eff57600080fd5b506107d4610f0e366004613fbf565b6130cd565b348015610f1f57600080fd5b506105e86130fc565b348015610f3457600080fd5b506002546105e8906001600160a01b031681565b348015610f5457600080fd5b50610566610f63366004613c6e565b613125565b348015610f7457600080fd5b50610566610f83366004613be0565b613158565b348015610f9457600080fd5b5061049860055481565b348015610faa57600080fd5b50610566610fb93660046143cc565b6132ce565b348015610fca57600080fd5b50610566610fd9366004613be0565b61335a565b348015610fea57600080fd5b506003546105e8906001600160a01b031681565b34801561100a57600080fd5b5061101e611019366004613be0565b6133df565b604080519687526020870195909552938501929092526060840152608083015260a082015260c0016104a2565b60035460405163cde036c960e01b81526001600160a01b0385811660048301526024820185905260448201849052600092169063cde036c9906064015b602060405180830381865afa1580156110a5573d6000803e3d6000fd5b505050506040513d601f19601f820116820180604052508101906110c99190614421565b90505b9392505050565b6000816001600160a01b03166399332c5e6040518163ffffffff1660e01b8152600401602060405180830381865afa158015611113573d6000803e3d6000fd5b505050506040513d601f19601f820116820180604052508101906111379190614421565b92915050565b6000816001600160a01b031663ae423daf6040518163ffffffff1660e01b8152600401602060405180830381865afa158015611113573d6000803e3d6000fd5b6000816001600160a01b031663cf0042176040518163ffffffff1660e01b8152600401602060405180830381865afa158015611113573d6000803e3d6000fd5b6000806000836001600160a01b031663766718086040518163ffffffff1660e01b8152600401606060405180830381865afa158015611200573d6000803e3d6000fd5b505050506040513d601f19601f82011682018060405250810190611224919061443a565b9250925092509193909250565b60405163011c775360e21b8152600481018390526024810182905233604482015260009081906001600160a01b03861690630471dd4c906064015b60408051808303816000875af115801561128a573d6000803e3d6000fd5b505050506040513d601f19601f820116820180604052508101906112ae9190614478565b60035460405163ce97a4b360e01b81526001600160a01b038981166004830152939550919350919091169063ce97a4b390602401600060405180830381600087803b1580156112fc57600080fd5b505af1158015611310573d6000803e3d6000fd5b5050505081156113be57846001600160a01b03167f9bf380fe36617cd5d995968abb4ae6d3657a763c126535d590b4503ff2542426866001600160a01b03166399332c5e6040518163ffffffff1660e01b8152600401602060405180830381865afa158015611383573d6000803e3d6000fd5b505050506040513d601f19601f820116820180604052508101906113a79190614421565b604080519182524260208301520160405180910390a25b801561147257846001600160a01b03166323e780776040518163ffffffff1660e01b8152600401602060405180830381865afa158015611402573d6000803e3d6000fd5b505050506040513d601f19601f820116820180604052508101906114269190614421565b6040805186815260208101869052428183015290516001600160a01b038816917ff7d2257d4a1c445138ab52bd3c22425bfed29da81d0173961c697dc14fcba60c919081900360600190a35b5050505050565b6000816001600160a01b0316630220499f6040518163ffffffff1660e01b8152600401602060405180830381865afa158015611113573d6000803e3d6000fd5b6000816001600160a01b031663e3042b176040518163ffffffff1660e01b8152600401602060405180830381865afa158015611113573d6000803e3d6000fd5b60035460405163025299d960e61b81526001600160a01b038581166004830152602482018590526044820184905260009216906394a6764090606401611088565b6000816001600160a01b031663e2d2bfe36040518163ffffffff1660e01b8152600401602060405180830381865afa15801561157a573d6000803e3d6000fd5b505050506040513d601f19601f8201168201806040525081019061113791906144a7565b6000816001600160a01b031663351b61556040518163ffffffff1660e01b8152600401602060405180830381865afa158015611113573d6000803e3d6000fd5b7ff0c57e16840df040f15088dc2f81fe391c3923bec73e23a9662efc9c229c6a008054600160401b810460ff1615906001600160401b03166000811580156116235750825b90506000826001600160401b0316600114801561163f5750303b155b90508115801561164d575080155b1561166b5760405163f92ee8a960e01b815260040160405180910390fd5b845467ffffffffffffffff19166001178555831561169557845460ff60401b1916600160401b1785555b61169e8a61345e565b6116a661346f565b6001600160a01b0389166116d55760405162461bcd60e51b81526004016116cc906144c4565b60405180910390fd5b6001600160a01b0388166116fb5760405162461bcd60e51b81526004016116cc906144c4565b6001600160a01b0387166117215760405162461bcd60e51b81526004016116cc906144c4565b6001600160a01b0386166117475760405162461bcd60e51b81526004016116cc906144c4565b600080546001600160a01b03808c166001600160a01b031992831617909255600180548b8416908316179055600280548a8416908316179055600380549289169290911691909117905583156117d757845460ff60401b19168555604051600181527fc7f505b2f371ae2175ee4913f4499e1f2633a7b5936321eed1cdaeb6115181d29060200160405180910390a15b50505050505050505050565b6117eb613477565b6001600160a01b0381166118115760405162461bcd60e51b81526004016116cc906144c4565b600380546001600160a01b0319166001600160a01b0392909216919091179055565b6003546040516324709d4f60e01b81526001600160a01b0384811660048301526024820184905260009216906324709d4f906044015b602060405180830381865afa158015611886573d6000803e3d6000fd5b505050506040513d601f19601f820116820180604052508101906110cc9190614421565b60006118b4613477565b6001546040516312dae64360e21b81526001600160a01b03888116600483015260ff88166024830152604482018790526064820186905284151560848301523060a48301526000921690634b6b990c9060c4016020604051808303816000875af1158015611926573d6000803e3d6000fd5b505050506040513d601f19601f8201168201806040525081019061194a91906144a7565b6040805161010080820183526001600160a01b03808c16835260ff808c1660208086019182528587018d8152606087018d81528c151560808901908152600160a08a01818152888d1660c08c018181524260e08e01908152600092835260079098529c81209b518c549851909916600160a01b026001600160a81b0319909816988a1698909817969096178a559251928901929092555160028801555160038701805493519851909516620100000262010000600160b01b031998151590960261ff00199115159190911661ffff1990931692909217919091179590951692909217905591516004909101556005805492935090611a47836144f7565b909155505060055460009081526006602090815260409182902080546001600160a01b038581166001600160a01b03199092168217909255835160ff8b168152928301899052828401889052861515606084015230608084015260a08301529151918916917f4ac24bfdd2a01328b05db8f3587611f1d37fd01718e1edaa23a75ec91d71f5179181900360c00190a29695505050505050565b600060606000856001600160a01b0316633aaf384d86866040518363ffffffff1660e01b8152600401611b14929190614510565b600060405180830381865afa158015611b31573d6000803e3d6000fd5b505050506040513d6000823e601f3d908101601f19168201604052611b59919081019061458e565b92509250925093509350939050565b604051639474092960e01b8152600481018390526024810182905233604482015260009081906001600160a01b0386169063947409299060640161126c565b600354604051635c0546ab60e01b81526001600160a01b038481166004830152602482018490526060921690635c0546ab90604401600060405180830381865afa158015611bf9573d6000803e3d6000fd5b505050506040513d6000823e601f3d908101601f191682016040526110cc91908101906145e4565b604051636568899560e11b8152600481018290526060906001600160a01b0384169063cad1132a906024015b600060405180830381865afa158015611c6a573d6000803e3d6000fd5b505050506040513d6000823e601f3d908101601f191682016040526110cc9190810190614674565b611c9a613477565b6001600160a01b038116611cc05760405162461bcd60e51b81526004016116cc906144c4565b600280546001600160a01b0319166001600160a01b0392909216919091179055565b60008054604051630f45743d60e21b81526001600160a01b03848116600483015290911690633d15d0f490602401602060405180830381865afa158015611d2d573d6000803e3d6000fd5b505050506040513d601f19601f820116820180604052508101906111379190614724565b6000816001600160a01b03166374be21506040518163ffffffff1660e01b8152600401602060405180830381865afa158015611113573d6000803e3d6000fd5b60008060009054906101000a90046001600160a01b03166001600160a01b0316636da49b836040518163ffffffff1660e01b8152600401602060405180830381865afa158015611de5573d6000803e3d6000fd5b505050506040513d601f19601f82011682018060405250810190611e099190614421565b905090565b6040516307d186df60e51b81526000906001600160a01b0384169063fa30dbe090611869908590600401614260565b60035460405163294afad360e21b81526001600160a01b038381166004830152600092169063a52beb4c906024015b602060405180830381865afa158015611113573d6000803e3d6000fd5b611e916134a9565b611e9a8261354e565b611ea48282613556565b5050565b6000611eb2613618565b50600080516020614b2d83398151915290565b6000816001600160a01b031663211b827d6040518163ffffffff1660e01b8152600401602060405180830381865afa158015611113573d6000803e3d6000fd5b60035460405163c261940760e01b81526001600160a01b03848116600483015260248201849052606092169063c261940790604401600060405180830381865afa158015611f57573d6000803e3d6000fd5b505050506040513d6000823e601f3d908101601f191682016040526110cc9190810190614741565b60405163a08f80a560e01b8152600481018290523360248201526001600160a01b0383169063a08f80a5906044015b600060405180830381600087803b158015611fc857600080fd5b505af1158015611fdc573d6000803e3d6000fd5b505050505050565b6000856001600160a01b031663766718086040518163ffffffff1660e01b8152600401606060405180830381865afa158015612024573d6000803e3d6000fd5b505050506040513d601f19601f82011682018060405250810190612048919061443a565b60035460405163387f774960e11b81526001600160a01b038b8116600483015260248201849052336044830152929550911692506370feee929150606401602060405180830381865afa1580156120a3573d6000803e3d6000fd5b505050506040513d601f19601f820116820180604052508101906120c79190614724565b6120e35760405162461bcd60e51b81526004016116cc906147eb565b811561214b5760405163335e8a7560e01b815260048101849052602481018390526001600160a01b0387169063335e8a7590604401600060405180830381600087803b15801561213257600080fd5b505af1158015612146573d6000803e3d6000fd5b505050505b60005b85518110156125af576000876001600160a01b031663b37f259088848151811061217a5761217a614808565b602002602001015188858151811061219457612194614808565b6020026020010151886040518463ffffffff1660e01b81526004016121cc939291909283526020830191909152604082015260600190565b6020604051808303816000875af11580156121eb573d6000803e3d6000fd5b505050506040513d601f19601f8201168201806040525081019061220f9190614724565b905080156125a6576000805488516001600160a01b039091169063c274bd4f908a908690811061224157612241614808565b60200260200101516040518263ffffffff1660e01b815260040161226791815260200190565b602060405180830381865afa158015612284573d6000803e3d6000fd5b505050506040513d601f19601f820116820180604052508101906122a891906144a7565b905060008060009054906101000a90046001600160a01b03166001600160a01b031663b02439ae8a86815181106122e1576122e1614808565b60200260200101516040518263ffffffff1660e01b815260040161230791815260200190565b600060405180830381865afa158015612324573d6000803e3d6000fd5b505050506040513d6000823e601f3d908101601f1916820160405261234c919081019061481e565b505050505050505050509050896001600160a01b03167f7da483c8dd175f1c370a23b17545e19c0584cf3960d991202e216e6cf95b7a3d828b878151811061239657612396614808565b602090810291909101810151604080516001600160a01b0390941684529183015281018a905242606082015260800160405180910390a285156125a3576001600160a01b038281166000908152600860205260408082209051631daa642760e11b8152600481018b905290928d1690633b54c84e90602401602060405180830381865afa15801561242b573d6000803e3d6000fd5b505050506040513d601f19601f8201168201806040525081019061244f9190614421565b8c6001600160a01b031663211b827d6040518163ffffffff1660e01b8152600401602060405180830381865afa15801561248d573d6000803e3d6000fd5b505050506040513d601f19601f820116820180604052508101906124b19190614421565b6124bb91906148e6565b9050808260000160008282546124d19190614908565b9250508190555042826003018190555080600460008d89815181106124f8576124f8614808565b60200260200101518152602001908152602001600020600082825461251d9190614908565b925050819055508b6001600160a01b03167fff2541745d6ce75b9522a6e9b397f0c46d824c46a8bd4c145797d01f770dcf78848d898151811061256257612562614808565b602090810291909101810151604080516001600160a01b0390941684529183015281018c90526060810184905242608082015260a00160405180910390a250505b50505b5060010161214e565b50505050505050565b60405162d0549960e21b81526000906001600160a01b03841690630341526490611869908590600401614260565b6000816001600160a01b031663f3ac5e926040518163ffffffff1660e01b8152600401602060405180830381865afa15801561157a573d6000803e3d6000fd5b604051631ba07c8d60e21b81526001600160a01b038281166004830152336024830152831690636e81f23490604401611fae565b60035460405163387f774960e11b81526001600160a01b03848116600483015260248201849052336044830152909116906370feee9290606401602060405180830381865afa1580156126b1573d6000803e3d6000fd5b505050506040513d601f19601f820116820180604052508101906126d59190614724565b6126f15760405162461bcd60e51b81526004016116cc906147eb565b6040516334c029a960e01b8152600481018290526001600160a01b038316906334c029a990602401600060405180830381600087803b15801561273357600080fd5b505af1158015612747573d6000803e3d6000fd5b5050505080826001600160a01b03167f5ed90e6a0e12831302fecf13a2cc6f7e9439fed821340d0bddc4ae305dbf9c304260405161278791815260200190565b60405180910390a35050565b61279b613477565b6127a56000613661565b565b604051631c5d199160e21b81523360048201526001600160a01b03821690637174664490602401600060405180830381600087803b1580156127e857600080fd5b505af1158015611472573d6000803e3d6000fd5b33806128066130fc565b6001600160a01b0316146128385760405163118cdaa760e01b81526001600160a01b03821660048201526024016116cc565b61284181613661565b50565b60606000846001600160a01b031663c2b97d4c85856040518363ffffffff1660e01b8152600401612876929190614510565b600060405180830381865afa158015612893573d6000803e3d6000fd5b505050506040513d6000823e601f3d908101601f191682016040526128bb919081019061491b565b91509150935093915050565b60405163276f141960e21b815260048101839052602481018290526000906001600160a01b03851690639dbc506490604401611088565b6000816001600160a01b0316631dafe16b6040518163ffffffff1660e01b8152600401602060405180830381865afa158015611d2d573d6000803e3d6000fd5b6000816001600160a01b0316632d46247b6040518163ffffffff1660e01b8152600401602060405180830381865afa158015611d2d573d6000803e3d6000fd5b6000807f9016d09d72d40fdae2fd8ceac6b6234c7706214fd39c1cd1e609a0528c1993005b546001600160a01b031692915050565b60008060009054906101000a90046001600160a01b03166001600160a01b03166392ae6f666040518163ffffffff1660e01b8152600401602060405180830381865afa158015611de5573d6000803e3d6000fd5b60008054604051636fd8040f60e11b8152600481018490526001600160a01b039091169063dfb0081e90602401602060405180830381865afa15801561157a573d6000803e3d6000fd5b60405163486429e760e01b8152600481018290526000906001600160a01b0384169063486429e790602401611869565b604051631a4c010560e11b81526004810184905260248101839052604481018290523360648201526001600160a01b03851690633498020a90608401600060405180830381600087803b158015612ad757600080fd5b505af1158015612aeb573d6000803e3d6000fd5b5050505050505050565b612afd613477565b6001600160a01b03909116600090815260076020526040902060030180549115156101000261ff0019909216919091179055565b612b39613477565b6001600160a01b038116612b5f5760405162461bcd60e51b81526004016116cc906144c4565b600180546001600160a01b0319166001600160a01b0392909216919091179055565b60405163d1dd6ddd60e01b815260048101839052602481018290526000906001600160a01b0385169063d1dd6ddd90604401602060405180830381865afa158015612bd0573d6000803e3d6000fd5b505050506040513d601f19601f820116820180604052508101906110c99190614724565b6000816001600160a01b031663626560036040518163ffffffff1660e01b8152600401602060405180830381865afa158015612c34573d6000803e3d6000fd5b505050506040513d601f19601f820116820180604052508101906111379190614968565b612c8c60405180608001604052806000815260200160006001600160a01b0316815260200160008152602001600081525090565b604051632f883e6b60e21b8152600481018390526001600160a01b0384169063be20f9ac90602401608060405180830381865afa158015612cd1573d6000803e3d6000fd5b505050506040513d601f19601f820116820180604052508101906110cc9190614985565b60035460405163011c3fa360e11b81526001600160a01b03838116600483015260009216906302387f4690602401611e6c565b612d30613477565b6001600160a01b038116612d565760405162461bcd60e51b81526004016116cc906144c4565b600080546001600160a01b0319166001600160a01b0392909216919091179055565b6000806000846001600160a01b0316633894228e856040518263ffffffff1660e01b8152600401612dab91815260200190565b606060405180830381865afa158015612dc8573d6000803e3d6000fd5b505050506040513d601f19601f82011682018060405250810190612dec919061443a565b9250925092509250925092565b60008060009054906101000a90046001600160a01b03166001600160a01b031663ce7b6afb6040518163ffffffff1660e01b8152600401602060405180830381865afa158015611de5573d6000803e3d6000fd5b60035460405163387f774960e11b81526001600160a01b03888116600483015260248201879052336044830152909116906370feee9290606401602060405180830381865afa158015612ea4573d6000803e3d6000fd5b505050506040513d601f19601f82011682018060405250810190612ec89190614724565b612ee45760405162461bcd60e51b81526004016116cc906147eb565b6040516303703fc960e11b81526001600160a01b038716906306e07f9290612f1890889088908890889088906004016149f0565b600060405180830381600087803b158015612f3257600080fd5b505af1158015612f46573d6000803e3d6000fd5b5050505083866001600160a01b03167fcbd08c0021940d15cc732c670afbb27d5170795ee3a4ba0e47368452fae58c5d8742604051612f86929190614510565b60405180910390a3611fdc868686613699565b6040516302e9792560e61b8152600481018290523360248201526001600160a01b0383169063ba5e494090604401611fae565b612fd4613477565b6040514790600090339083908381818185875af1925050503d8060008114613018576040519150601f19603f3d011682016040523d82523d6000602084013e61301d565b606091505b50509050806130655760405162461bcd60e51b81526020600482015260146024820152734661696c656420746f2073656e642066756e647360601b60448201526064016116cc565b60405182815233907f5fafa99d0643513820be26656b45130b01e1c03062e1266bf36f88cbd3bd96959060200160405180910390a25050565b604051632750b58560e11b81526000906001600160a01b03841690634ea16b0a90611869908590600401614260565b604051638cdf3f6760e01b81526060906001600160a01b03841690638cdf3f6790611c4d908590600401614260565b6000807f237e158222e3e6968b72b9db0d8043aacf074ad9f650f0d1606b4d82ee432c006129a3565b6040516355dcaa1f60e01b8152600481018290523360248201526001600160a01b038316906355dcaa1f90604401611fae565b6001600160a01b0381166000908152600860205260408120600181015481549192916131849190614a42565b9050600081116131cc5760405162461bcd60e51b81526020600482015260136024820152724e6f207265776172647320746f20636c61696d60681b60448201526064016116cc565b808260010160008282546131e09190614908565b90915550504260028301556040516000906001600160a01b0385169083908381818185875af1925050503d8060008114613236576040519150601f19603f3d011682016040523d82523d6000602084013e61323b565b606091505b50509050806132855760405162461bcd60e51b81526020600482015260166024820152754661696c656420746f2073656e64207265776172647360501b60448201526064016116cc565b604080518381524260208201526001600160a01b038616917fdacbdde355ba930696a362ea6738feb9f8bd52dfb3d81947558fd3217e23e325910160405180910390a250505050565b60405163436e6ae960e01b8152600481018790526024810186905260448101859052606481018490526084810183905260a481018290523360c48201526001600160a01b0388169063436e6ae99060e401600060405180830381600087803b15801561333957600080fd5b505af115801561334d573d6000803e3d6000fd5b5050505050505050505050565b613362613477565b7f237e158222e3e6968b72b9db0d8043aacf074ad9f650f0d1606b4d82ee432c0080546001600160a01b0319166001600160a01b03831690811782556133a661297e565b6001600160a01b03167f38d16b8cac22d99fc7c124b9cd0de2d3fa1faef420bfe791d8c362d765e2270060405160405180910390a35050565b600080600080600080866001600160a01b031663db6e864f6040518163ffffffff1660e01b815260040160c060405180830381865afa158015613426573d6000803e3d6000fd5b505050506040513d601f19601f8201168201806040525081019061344a9190614a55565b949c939b5091995097509550909350915050565b6134666138d5565b6128418161391e565b6127a56138d5565b3361348061297e565b6001600160a01b0316146127a55760405163118cdaa760e01b81523360048201526024016116cc565b306001600160a01b037f000000000000000000000000000000000000000000000000000000000000000016148061353057507f00000000000000000000000000000000000000000000000000000000000000006001600160a01b0316613524600080516020614b2d833981519152546001600160a01b031690565b6001600160a01b031614155b156127a55760405163703e46dd60e11b815260040160405180910390fd5b612841613477565b816001600160a01b03166352d1902d6040518163ffffffff1660e01b8152600401602060405180830381865afa9250505080156135b0575060408051601f3d908101601f191682019092526135ad91810190614421565b60015b6135d857604051634c9c8ce360e01b81526001600160a01b03831660048201526024016116cc565b600080516020614b2d833981519152811461360957604051632a87526960e21b8152600481018290526024016116cc565b6136138383613950565b505050565b306001600160a01b037f000000000000000000000000000000000000000000000000000000000000000016146127a55760405163703e46dd60e11b815260040160405180910390fd5b7f237e158222e3e6968b72b9db0d8043aacf074ad9f650f0d1606b4d82ee432c0080546001600160a01b0319168155611ea4826139a6565b60405163c25564e160e01b81526000906001600160a01b0385169063c25564e1906136c8908690600401614260565b602060405180830381865afa1580156136e5573d6000803e3d6000fd5b505050506040513d601f19601f820116820180604052508101906137099190614421565b604051631c4a114760e11b8152600481018490529091506000906001600160a01b03861690633894228e90602401606060405180830381865afa158015613754573d6000803e3d6000fd5b505050506040513d601f19601f82011682018060405250810190613778919061443a565b9250505060005b82811015611fdc57604051633b76266160e01b81526000906001600160a01b03881690633b762661906137b89089908690600401614510565b600060405180830381865afa1580156137d5573d6000803e3d6000fd5b505050506040513d6000823e601f3d908101601f191682016040526137fd9190810190614a9f565b90506000876001600160a01b0316633aaf384d83886040518363ffffffff1660e01b815260040161382f929190614510565b600060405180830381865afa15801561384c573d6000803e3d6000fd5b505050506040513d6000823e601f3d908101601f19168201604052613874919081019061458e565b509150506000815111156138cb5785886001600160a01b03167f1746fd35c2b9c905f8e7ef34232f796acb536f2fd87f01d201f57fb338eab9a6868585426040516138c29493929190614ad3565b60405180910390a35b505060010161377f565b7ff0c57e16840df040f15088dc2f81fe391c3923bec73e23a9662efc9c229c6a0054600160401b900460ff166127a557604051631afcd79f60e31b815260040160405180910390fd5b6139266138d5565b6001600160a01b03811661283857604051631e4fbdf760e01b8152600060048201526024016116cc565b61395982613a17565b6040516001600160a01b038316907fbc7cd75a20ee27fd9adebab32041f755214dbc6bffa90cc0225b39da2e5c2d3b90600090a280511561399e576136138282613a7c565b611ea4613af2565b7f9016d09d72d40fdae2fd8ceac6b6234c7706214fd39c1cd1e609a0528c19930080546001600160a01b031981166001600160a01b03848116918217845560405192169182907f8be0079c531659141344cd1fd0a4f28419497f9722a3daafe3b4186f6b6457e090600090a3505050565b806001600160a01b03163b600003613a4d57604051634c9c8ce360e01b81526001600160a01b03821660048201526024016116cc565b600080516020614b2d83398151915280546001600160a01b0319166001600160a01b0392909216919091179055565b6060600080846001600160a01b031684604051613a999190614b10565b600060405180830381855af49150503d8060008114613ad4576040519150601f19603f3d011682016040523d82523d6000602084013e613ad9565b606091505b5091509150613ae9858383613b11565b95945050505050565b34156127a55760405163b398979f60e01b815260040160405180910390fd5b606082613b2657613b2182613b6d565b6110cc565b8151158015613b3d57506001600160a01b0384163b155b15613b6657604051639996b31560e01b81526001600160a01b03851660048201526024016116cc565b50806110cc565b805115613b7d5780518082602001fd5b60405163d6bda27560e01b815260040160405180910390fd5b6001600160a01b038116811461284157600080fd5b600080600060608486031215613bc057600080fd5b8335613bcb81613b96565b95602085013595506040909401359392505050565b600060208284031215613bf257600080fd5b81356110cc81613b96565b600080600080600060a08688031215613c1557600080fd5b8535613c2081613b96565b94506020860135613c3081613b96565b93506040860135613c4081613b96565b92506060860135613c5081613b96565b91506080860135613c6081613b96565b809150509295509295909350565b60008060408385031215613c8157600080fd5b8235613c8c81613b96565b946020939093013593505050565b600060208284031215613cac57600080fd5b5035919050565b60ff8116811461284157600080fd5b801515811461284157600080fd5b600080600080600060a08688031215613ce857600080fd5b8535613cf381613b96565b94506020860135613d0381613cb3565b935060408601359250606086013591506080860135613c6081613cc2565b634e487b7160e01b600052604160045260246000fd5b604080519081016001600160401b0381118282101715613d5957613d59613d21565b60405290565b604051601f8201601f191681016001600160401b0381118282101715613d8757613d87613d21565b604052919050565b60006001600160401b03821115613da857613da8613d21565b50601f01601f191660200190565b6000613dc9613dc484613d8f565b613d5f565b9050828152838383011115613ddd57600080fd5b828260208301376000602084830101529392505050565b600082601f830112613e0557600080fd5b6110cc83833560208501613db6565b600080600060608486031215613e2957600080fd5b8335613e3481613b96565b925060208401356001600160401b03811115613e4f57600080fd5b613e5b86828701613df4565b925050604084013590509250925092565b60038110613e8a57634e487b7160e01b600052602160045260246000fd5b9052565b60005b83811015613ea9578181015183820152602001613e91565b50506000910152565b60008151808452613eca816020860160208601613e8e565b601f01601f19169290920160200192915050565b613ee88185613e6c565b606060208201526000613efe6060830185613eb2565b9050826040830152949350505050565b6020808252825182820181905260009190848201906040850190845b81811015613f4657835183529284019291840191600101613f2a565b50909695505050505050565b60008282518085526020808601955060208260051b8401016020860160005b84811015613f9f57601f19868403018952613f8d838351613eb2565b98840198925090830190600101613f71565b5090979650505050505050565b6020815260006110cc6020830184613f52565b60008060408385031215613fd257600080fd5b8235613fdd81613b96565b915060208301356001600160401b03811115613ff857600080fd5b61400485828601613df4565b9150509250929050565b6000806040838503121561402157600080fd5b823561402c81613b96565b915060208301356001600160401b0381111561404757600080fd5b8301601f8101851361405857600080fd5b61400485823560208401613db6565b602080825282518282018190526000919060409081850190868401855b828110156140a957815180518552860151868501529284019290850190600101614084565b5091979650505050505050565b60006001600160401b038211156140cf576140cf613d21565b5060051b60200190565b600082601f8301126140ea57600080fd5b813560206140fa613dc4836140b6565b8083825260208201915060208460051b87010193508684111561411c57600080fd5b602086015b848110156141385780358352918301918301614121565b509695505050505050565b600080600080600060a0868803121561415b57600080fd5b853561416681613b96565b945060208601356001600160401b038082111561418257600080fd5b61418e89838a016140d9565b955060408801359150808211156141a457600080fd5b506141b1888289016140d9565b9598949750949560608101359550608001359392505050565b600080604083850312156141dd57600080fd5b82356141e881613b96565b915060208301356141f881613b96565b809150509250929050565b6040815260006142166040830185613eb2565b90506110cc6020830184613e6c565b6000806000806080858703121561423b57600080fd5b843561424681613b96565b966020860135965060408601359560600135945092505050565b6020815260006110cc6020830184613eb2565b6000806040838503121561428657600080fd5b823561429181613b96565b915060208301356141f881613cc2565b600082601f8301126142b257600080fd5b813560206142c2613dc4836140b6565b82815260059290921b840181019181810190868411156142e157600080fd5b8286015b848110156141385780356001600160401b038111156143045760008081fd5b6143128986838b0101613df4565b8452509183019183016142e5565b60008060008060008060c0878903121561433957600080fd5b863561434481613b96565b955060208701356001600160401b038082111561436057600080fd5b61436c8a838b01613df4565b965060408901359550606089013591508082111561438957600080fd5b6143958a838b016142a1565b945060808901359150808211156143ab57600080fd5b506143b889828a016142a1565b92505060a087013590509295509295509295565b600080600080600080600060e0888a0312156143e757600080fd5b87356143f281613b96565b9960208901359950604089013598606081013598506080810135975060a0810135965060c00135945092505050565b60006020828403121561443357600080fd5b5051919050565b60008060006060848603121561444f57600080fd5b8351925060208401519150604084015190509250925092565b805161447381613cc2565b919050565b6000806040838503121561448b57600080fd5b825161449681613cc2565b60208401519092506141f881613cc2565b6000602082840312156144b957600080fd5b81516110cc81613b96565b60208082526003908201526245343560e81b604082015260600190565b634e487b7160e01b600052601160045260246000fd5b600060018201614509576145096144e1565b5060010190565b6040815260006145236040830185613eb2565b90508260208301529392505050565b80516003811061447357600080fd5b600082601f83011261455257600080fd5b8151614560613dc482613d8f565b81815284602083860101111561457557600080fd5b614586826020830160208701613e8e565b949350505050565b6000806000606084860312156145a357600080fd5b6145ac84614532565b925060208401516001600160401b038111156145c757600080fd5b6145d386828701614541565b925050604084015190509250925092565b600060208083850312156145f757600080fd5b82516001600160401b0381111561460d57600080fd5b8301601f8101851361461e57600080fd5b805161462c613dc4826140b6565b81815260059190911b8201830190838101908783111561464b57600080fd5b928401925b8284101561466957835182529284019290840190614650565b979650505050505050565b6000602080838503121561468757600080fd5b82516001600160401b038082111561469e57600080fd5b818501915085601f8301126146b257600080fd5b81516146c0613dc4826140b6565b81815260059190911b830184019084810190888311156146df57600080fd5b8585015b83811015614717578051858111156146fb5760008081fd5b6147098b89838a0101614541565b8452509186019186016146e3565b5098975050505050505050565b60006020828403121561473657600080fd5b81516110cc81613cc2565b6000602080838503121561475457600080fd5b82516001600160401b0381111561476a57600080fd5b8301601f8101851361477b57600080fd5b8051614789613dc4826140b6565b81815260069190911b820183019083810190878311156147a857600080fd5b928401925b8284101561466957604084890312156147c65760008081fd5b6147ce613d37565b8451815285850151868201528252604090930192908401906147ad565b60208082526003908201526245343960e81b604082015260600190565b634e487b7160e01b600052603260045260246000fd5b60008060008060008060008060008060006101608c8e03121561484057600080fd5b8b5161484b81613b96565b60208d0151909b506001600160401b0381111561486757600080fd5b6148738e828f01614541565b9a505060408c0151985060608c0151975060808c0151965060a08c0151955060c08c0151945060e08c01516148a781613cc2565b93506148b66101008d01614468565b92506148c56101208d01614468565b91506148d46101408d01614468565b90509295989b509295989b9093969950565b60008261490357634e487b7160e01b600052601260045260246000fd5b500490565b80820180821115611137576111376144e1565b6000806040838503121561492e57600080fd5b82516001600160401b0381111561494457600080fd5b61495085828601614541565b92505061495f60208401614532565b90509250929050565b60006020828403121561497a57600080fd5b81516110cc81613cb3565b60006080828403121561499757600080fd5b604051608081018181106001600160401b03821117156149b9576149b9613d21565b6040528251815260208301516149ce81613b96565b6020820152604083810151908201526060928301519281019290925250919050565b60a081526000614a0360a0830188613eb2565b8660208401528281036040840152614a1b8187613f52565b90508281036060840152614a2f8186613f52565b9150508260808301529695505050505050565b81810381811115611137576111376144e1565b60008060008060008060c08789031215614a6e57600080fd5b865195506020870151945060408701519350606087015192506080870151915060a087015190509295509295509295565b600060208284031215614ab157600080fd5b81516001600160401b03811115614ac757600080fd5b61458684828501614541565b848152608060208201526000614aec6080830186613eb2565b8281036040840152614afe8186613eb2565b91505082606083015295945050505050565b60008251614b22818460208701613e8e565b919091019291505056fe360894a13ba1a3210667c828492db98dca3e2076cc3735a920a3ca505d382bbca2646970667358221220f60da265599ba46154a65adff252bc6c26bdaec223bfe9c533b2c87fc57ea19464736f6c63430008180033",
  "linkReferences": {},
  "deployedLinkReferences": {}
}