{
  "_format": "hh-sol-artifact-1",
  "contractName": "ValidatorPriorityAssigner",
  "sourceName": "contracts/ValidatorPriorityAssigner.sol",
  "abi": [
    {
      "inputs": [],
      "stateMutability": "nonpayable",
      "type": "constructor"
    },
    {
      "inputs": [
        {
          "internalType": "address",
          "name": "target",
          "type": "address"
        }
      ],
      "name": "AddressEmptyCode",
      "type": "error"
    },
    {
      "inputs": [
        {
          "internalType": "address",
          "name": "implementation",
          "type": "address"
        }
      ],
      "name": "ERC1967InvalidImplementation",
      "type": "error"
    },
    {
      "inputs": [],
      "name": "ERC1967NonPayable",
      "type": "error"
    },
    {
      "inputs": [],
      "name": "FailedCall",
      "type": "error"
    },
    {
      "inputs": [],
      "name": "InvalidInitialization",
      "type": "error"
    },
    {
      "inputs": [],
      "name": "NotInitializing",
      "type": "error"
    },
    {
      "inputs": [
        {
          "internalType": "address",
          "name": "owner",
          "type": "address"
        }
      ],
      "name": "OwnableInvalidOwner",
      "type": "error"
    },
    {
      "inputs": [
        {
          "internalType": "address",
          "name": "account",
          "type": "address"
        }
      ],
      "name": "OwnableUnauthorizedAccount",
      "type": "error"
    },
    {
      "inputs": [],
      "name": "UUPSUnauthorizedCallContext",
      "type": "error"
    },
    {
      "inputs": [
        {
          "internalType": "bytes32",
          "name": "slot",
          "type": "bytes32"
        }
      ],
      "name": "UUPSUnsupportedProxiableUUID",
      "type": "error"
    },
    {
      "anonymous": false,
      "inputs": [
        {
          "indexed": true,
          "internalType": "address",
          "name": "dataMarket",
          "type": "address"
        },
        {
          "indexed": true,
          "internalType": "uint256",
          "name": "prunedEpoch",
          "type": "uint256"
        }
      ],
      "name": "HistoricalDataPruned",
      "type": "event"
    },
    {
      "anonymous": false,
      "inputs": [
        {
          "indexed": false,
          "internalType": "uint64",
          "name": "version",
          "type": "uint64"
        }
      ],
      "name": "Initialized",
      "type": "event"
    },
    {
      "anonymous": false,
      "inputs": [
        {
          "indexed": true,
          "internalType": "address",
          "name": "previousOwner",
          "type": "address"
        },
        {
          "indexed": true,
          "internalType": "address",
          "name": "newOwner",
          "type": "address"
        }
      ],
      "name": "OwnershipTransferStarted",
      "type": "event"
    },
    {
      "anonymous": false,
      "inputs": [
        {
          "indexed": true,
          "internalType": "address",
          "name": "previousOwner",
          "type": "address"
        },
        {
          "indexed": true,
          "internalType": "address",
          "name": "newOwner",
          "type": "address"
        }
      ],
      "name": "OwnershipTransferred",
      "type": "event"
    },
    {
      "anonymous": false,
      "inputs": [
        {
          "indexed": true,
          "internalType": "address",
          "name": "dataMarket",
          "type": "address"
        },
        {
          "indexed": true,
          "internalType": "uint256",
          "name": "epochId",
          "type": "uint256"
        },
        {
          "indexed": false,
          "internalType": "uint256",
          "name": "seed",
          "type": "uint256"
        },
        {
          "indexed": false,
          "internalType": "uint256",
          "name": "timestamp",
          "type": "uint256"
        },
        {
          "indexed": false,
          "internalType": "uint256",
          "name": "validatorCount",
          "type": "uint256"
        }
      ],
      "name": "PrioritiesAssigned",
      "type": "event"
    },
    {
      "anonymous": false,
      "inputs": [
        {
          "indexed": true,
          "internalType": "address",
          "name": "implementation",
          "type": "address"
        }
      ],
      "name": "Upgraded",
      "type": "event"
    },
    {
      "anonymous": false,
      "inputs": [
        {
          "indexed": true,
          "internalType": "uint256",
          "name": "newCount",
          "type": "uint256"
        },
        {
          "indexed": true,
          "internalType": "uint256",
          "name": "oldCount",
          "type": "uint256"
        }
      ],
      "name": "ValidatorPriorityCountUpdated",
      "type": "event"
    },
    {
      "anonymous": false,
      "inputs": [
        {
          "indexed": true,
          "internalType": "address",
          "name": "oldValidatorState",
          "type": "address"
        },
        {
          "indexed": true,
          "internalType": "address",
          "name": "newValidatorState",
          "type": "address"
        }
      ],
      "name": "ValidatorStateUpdated",
      "type": "event"
    },
    {
      "inputs": [],
      "name": "HISTORY_SIZE",
      "outputs": [
        {
          "internalType": "uint256",
          "name": "",
          "type": "uint256"
        }
      ],
      "stateMutability": "view",
      "type": "function"
    },
    {
      "inputs": [],
      "name": "UPGRADE_INTERFACE_VERSION",
      "outputs": [
        {
          "internalType": "string",
          "name": "",
          "type": "string"
        }
      ],
      "stateMutability": "view",
      "type": "function"
    },
    {
      "inputs": [],
      "name": "acceptOwnership",
      "outputs": [],
      "stateMutability": "nonpayable",
      "type": "function"
    },
    {
      "inputs": [
        {
          "internalType": "address",
          "name": "dataMarket",
          "type": "address"
        },
        {
          "internalType": "uint256",
          "name": "epochId",
          "type": "uint256"
        },
        {
          "internalType": "uint256",
          "name": "seed",
          "type": "uint256"
        }
      ],
      "name": "assignPriorities",
      "outputs": [],
      "stateMutability": "nonpayable",
      "type": "function"
    },
    {
      "inputs": [
        {
          "internalType": "address",
          "name": "dataMarket",
          "type": "address"
        }
      ],
      "name": "assignPrioritiesAuto",
      "outputs": [],
      "stateMutability": "nonpayable",
      "type": "function"
    },
    {
      "inputs": [
        {
          "internalType": "address",
          "name": "dataMarket",
          "type": "address"
        },
        {
          "internalType": "uint256",
          "name": "epochId",
          "type": "uint256"
        },
        {
          "internalType": "address",
          "name": "validatorAddress",
          "type": "address"
        }
      ],
      "name": "canValidatorSubmit",
      "outputs": [
        {
          "internalType": "bool",
          "name": "canSubmit",
          "type": "bool"
        }
      ],
      "stateMutability": "view",
      "type": "function"
    },
    {
      "inputs": [
        {
          "internalType": "address",
          "name": "dataMarket",
          "type": "address"
        },
        {
          "internalType": "uint256",
          "name": "validatorIndex",
          "type": "uint256"
        }
      ],
      "name": "currentPriorities",
      "outputs": [
        {
          "internalType": "uint256",
          "name": "priority",
          "type": "uint256"
        }
      ],
      "stateMutability": "view",
      "type": "function"
    },
    {
      "inputs": [
        {
          "internalType": "address",
          "name": "dataMarket",
          "type": "address"
        }
      ],
      "name": "getActiveValidatorCount",
      "outputs": [
        {
          "internalType": "uint256",
          "name": "",
          "type": "uint256"
        }
      ],
      "stateMutability": "view",
      "type": "function"
    },
    {
      "inputs": [
        {
          "internalType": "address",
          "name": "dataMarket",
          "type": "address"
        },
        {
          "internalType": "uint256",
          "name": "validatorId",
          "type": "uint256"
        }
      ],
      "name": "getCurrentPriority",
      "outputs": [
        {
          "internalType": "uint256",
          "name": "",
          "type": "uint256"
        }
      ],
      "stateMutability": "view",
      "type": "function"
    },
    {
      "inputs": [
        {
          "internalType": "address",
          "name": "dataMarket",
          "type": "address"
        },
        {
          "internalType": "uint256",
          "name": "validatorIndex",
          "type": "uint256"
        }
      ],
      "name": "getCurrentPriorityByIndex",
      "outputs": [
        {
          "internalType": "uint256",
          "name": "",
          "type": "uint256"
        }
      ],
      "stateMutability": "view",
      "type": "function"
    },
    {
      "inputs": [
        {
          "internalType": "address",
          "name": "dataMarket",
          "type": "address"
        },
        {
          "internalType": "uint256",
          "name": "epochId",
          "type": "uint256"
        }
      ],
      "name": "getHistoricalActiveValidators",
      "outputs": [
        {
          "internalType": "uint256[]",
          "name": "",
          "type": "uint256[]"
        }
      ],
      "stateMutability": "view",
      "type": "function"
    },
    {
      "inputs": [
        {
          "internalType": "address",
          "name": "dataMarket",
          "type": "address"
        },
        {
          "internalType": "uint256",
          "name": "epochId",
          "type": "uint256"
        }
      ],
      "name": "getHistoricalPriorities",
      "outputs": [
        {
          "components": [
            {
              "internalType": "uint256",
              "name": "validatorIndex",
              "type": "uint256"
            },
            {
              "internalType": "uint256",
              "name": "priority",
              "type": "uint256"
            }
          ],
          "internalType": "struct ValidatorPriorityAssigner.ValidatorIndexPriority[]",
          "name": "",
          "type": "tuple[]"
        }
      ],
      "stateMutability": "view",
      "type": "function"
    },
    {
      "inputs": [
        {
          "internalType": "address",
          "name": "dataMarket",
          "type": "address"
        },
        {
          "internalType": "uint256",
          "name": "epochId",
          "type": "uint256"
        },
        {
          "internalType": "uint256",
          "name": "validatorId",
          "type": "uint256"
        }
      ],
      "name": "getHistoricalPriority",
      "outputs": [
        {
          "internalType": "uint256",
          "name": "",
          "type": "uint256"
        }
      ],
      "stateMutability": "view",
      "type": "function"
    },
    {
      "inputs": [
        {
          "internalType": "address",
          "name": "dataMarket",
          "type": "address"
        },
        {
          "internalType": "uint256",
          "name": "epochId",
          "type": "uint256"
        },
        {
          "internalType": "uint256",
          "name": "validatorIndex",
          "type": "uint256"
        }
      ],
      "name": "getHistoricalPriorityByIndex",
      "outputs": [
        {
          "internalType": "uint256",
          "name": "",
          "type": "uint256"
        }
      ],
      "stateMutability": "view",
      "type": "function"
    },
    {
      "inputs": [
        {
          "internalType": "address",
          "name": "dataMarket",
          "type": "address"
        },
        {
          "internalType": "uint256",
          "name": "epochId",
          "type": "uint256"
        }
      ],
      "name": "getHistoricalValidatorCount",
      "outputs": [
        {
          "internalType": "uint256",
          "name": "",
          "type": "uint256"
        }
      ],
      "stateMutability": "view",
      "type": "function"
    },
    {
      "inputs": [
        {
          "internalType": "address",
          "name": "dataMarket",
          "type": "address"
        }
      ],
      "name": "getLatestEpoch",
      "outputs": [
        {
          "internalType": "uint256",
          "name": "",
          "type": "uint256"
        }
      ],
      "stateMutability": "view",
      "type": "function"
    },
    {
      "inputs": [
        {
          "internalType": "address",
          "name": "dataMarket",
          "type": "address"
        }
      ],
      "name": "getOldestEpoch",
      "outputs": [
        {
          "internalType": "uint256",
          "name": "",
          "type": "uint256"
        }
      ],
      "stateMutability": "view",
      "type": "function"
    },
    {
      "inputs": [
        {
          "internalType": "address",
          "name": "dataMarket",
          "type": "address"
        },
        {
          "internalType": "uint256",
          "name": "epochId",
          "type": "uint256"
        },
        {
          "internalType": "uint256",
          "name": "",
          "type": "uint256"
        }
      ],
      "name": "historicalActiveValidators",
      "outputs": [
        {
          "internalType": "uint256",
          "name": "activeValidators",
          "type": "uint256"
        }
      ],
      "stateMutability": "view",
      "type": "function"
    },
    {
      "inputs": [
        {
          "internalType": "address",
          "name": "dataMarket",
          "type": "address"
        },
        {
          "internalType": "uint256",
          "name": "epochId",
          "type": "uint256"
        },
        {
          "internalType": "uint256",
          "name": "",
          "type": "uint256"
        }
      ],
      "name": "historicalPriorities",
      "outputs": [
        {
          "internalType": "uint256",
          "name": "validatorIndex",
          "type": "uint256"
        },
        {
          "internalType": "uint256",
          "name": "priority",
          "type": "uint256"
        }
      ],
      "stateMutability": "view",
      "type": "function"
    },
    {
      "inputs": [
        {
          "internalType": "address",
          "name": "dataMarket",
          "type": "address"
        },
        {
          "internalType": "uint256",
          "name": "epochId",
          "type": "uint256"
        }
      ],
      "name": "historicalValidatorCounts",
      "outputs": [
        {
          "internalType": "uint256",
          "name": "validatorCount",
          "type": "uint256"
        }
      ],
      "stateMutability": "view",
      "type": "function"
    },
    {
      "inputs": [
        {
          "internalType": "address",
          "name": "initialOwner",
          "type": "address"
        },
        {
          "internalType": "address",
          "name": "_validatorState",
          "type": "address"
        }
      ],
      "name": "initialize",
      "outputs": [],
      "stateMutability": "nonpayable",
      "type": "function"
    },
    {
      "inputs": [
        {
          "internalType": "address",
          "name": "dataMarket",
          "type": "address"
        }
      ],
      "name": "latestEpoch",
      "outputs": [
        {
          "internalType": "uint256",
          "name": "epoch",
          "type": "uint256"
        }
      ],
      "stateMutability": "view",
      "type": "function"
    },
    {
      "inputs": [
        {
          "internalType": "address",
          "name": "dataMarket",
          "type": "address"
        }
      ],
      "name": "oldestEpoch",
      "outputs": [
        {
          "internalType": "uint256",
          "name": "epoch",
          "type": "uint256"
        }
      ],
      "stateMutability": "view",
      "type": "function"
    },
    {
      "inputs": [],
      "name": "owner",
      "outputs": [
        {
          "internalType": "address",
          "name": "",
          "type": "address"
        }
      ],
      "stateMutability": "view",
      "type": "function"
    },
    {
      "inputs": [],
      "name": "pendingOwner",
      "outputs": [
        {
          "internalType": "address",
          "name": "",
          "type": "address"
        }
      ],
      "stateMutability": "view",
      "type": "function"
    },
    {
      "inputs": [],
      "name": "protocolState",
      "outputs": [
        {
          "internalType": "address",
          "name": "",
          "type": "address"
        }
      ],
      "stateMutability": "view",
      "type": "function"
    },
    {
      "inputs": [],
      "name": "proxiableUUID",
      "outputs": [
        {
          "internalType": "bytes32",
          "name": "",
          "type": "bytes32"
        }
      ],
      "stateMutability": "view",
      "type": "function"
    },
    {
      "inputs": [],
      "name": "renounceOwnership",
      "outputs": [],
      "stateMutability": "nonpayable",
      "type": "function"
    },
    {
      "inputs": [
        {
          "internalType": "uint256",
          "name": "newCount",
          "type": "uint256"
        }
      ],
      "name": "setValidatorPriorityCount",
      "outputs": [],
      "stateMutability": "nonpayable",
      "type": "function"
    },
    {
      "inputs": [
        {
          "internalType": "address",
          "name": "newOwner",
          "type": "address"
        }
      ],
      "name": "transferOwnership",
      "outputs": [],
      "stateMutability": "nonpayable",
      "type": "function"
    },
    {
      "inputs": [
        {
          "internalType": "address",
          "name": "_protocolState",
          "type": "address"
        }
      ],
      "name": "updateProtocolState",
      "outputs": [],
      "stateMutability": "nonpayable",
      "type": "function"
    },
    {
      "inputs": [
        {
          "internalType": "address",
          "name": "_validatorState",
          "type": "address"
        }
      ],
      "name": "updateValidatorState",
      "outputs": [],
      "stateMutability": "nonpayable",
      "type": "function"
    },
    {
      "inputs": [
        {
          "internalType": "address",
          "name": "newImplementation",
          "type": "address"
        },
        {
          "internalType": "bytes",
          "name": "data",
          "type": "bytes"
        }
      ],
      "name": "upgradeToAndCall",
      "outputs": [],
      "stateMutability": "payable",
      "type": "function"
    },
    {
      "inputs": [],
      "name": "validatorPriorityCount",
      "outputs": [
        {
          "internalType": "uint256",
          "name": "",
          "type": "uint256"
        }
      ],
      "stateMutability": "view",
      "type": "function"
    },
    {
      "inputs": [],
      "name": "validatorState",
      "outputs": [
        {
          "internalType": "contract PowerloomValidatorNodes",
          "name": "",
          "type": "address"
        }
      ],
      "stateMutability": "view",
      "type": "function"
    }
  ],
  "bytecode": "0x60a0604052306080523480156200001557600080fd5b506200002062000026565b620000da565b7ff0c57e16840df040f15088dc2f81fe391c3923bec73e23a9662efc9c229c6a00805468010000000000000000900460ff1615620000775760405163f92ee8a960e01b815260040160405180910390fd5b80546001600160401b0390811614620000d75780546001600160401b0319166001600160401b0390811782556040519081527fc7f505b2f371ae2175ee4913f4499e1f2633a7b5936321eed1cdaeb6115181d29060200160405180910390a15b50565b608051612e666200010460003960008181611fe001528181612009015261214f0152612e666000f3fe6080604052600436106102035760003560e01c8063652c462e11610118578063a52beb4c116100a0578063ce97a4b31161006f578063ce97a4b314610688578063cf2dead9146106a8578063e30c3978146106dd578063e59ee0c6146106f2578063f2fde38b1461071257600080fd5b8063a52beb4c146105c7578063ad3cb1cc146105fd578063c26194071461063b578063cde036c91461066857600080fd5b806379ba5097116100e757806379ba5097146105475780637c52443c1461055c5780638da5cb5b1461057c57806394a67640146105915780639e8ad985146105b157600080fd5b8063652c462e146104c057806370feee92146104d5578063715018a61461050557806372d417211461051a57600080fd5b806332812af61161019b57806352d1902d1161016a57806352d1902d14610411578063537390ef1461042657806354bc831f14610453578063565cda85146104735780635c0546ab1461049357600080fd5b806332812af61461037b5780633f46c85d1461039b578063485cc955146103de5780634f1ef286146103fe57600080fd5b806320210122116101d757806320210122146102e3578063229e13fd1461030357806324709d4f1461033b5780632d6f49691461035b57600080fd5b80625efb201461020857806302387f461461022a5780630649cfe8146102735780630b88f3a2146102ab575b600080fd5b34801561021457600080fd5b506102286102233660046129a6565b610732565b005b34801561023657600080fd5b506102606102453660046129d9565b6001600160a01b031660009081526007602052604090205490565b6040519081526020015b60405180910390f35b34801561027f57600080fd5b5061026061028e3660046129f4565b600360209081526000928352604080842090915290825290205481565b3480156102b757600080fd5b506002546102cb906001600160a01b031681565b6040516001600160a01b03909116815260200161026a565b3480156102ef57600080fd5b506102606102fe3660046129f4565b610971565b34801561030f57600080fd5b5061026061031e3660046129f4565b600560209081526000928352604080842090915290825290205481565b34801561034757600080fd5b506102606103563660046129f4565b6109c6565b34801561036757600080fd5b506102606103763660046129d9565b610a27565b34801561038757600080fd5b506102286103963660046129d9565b610a7c565b3480156103a757600080fd5b506102606103b63660046129f4565b6001600160a01b03919091166000908152600360209081526040808320938352929052205490565b3480156103ea57600080fd5b506102286103f9366004612a1e565b610b2c565b61022861040c366004612a67565b610cbb565b34801561041d57600080fd5b50610260610cda565b34801561043257600080fd5b506102606104413660046129d9565b60086020526000908152604090205481565b34801561045f57600080fd5b5061026061046e3660046129a6565b610cf7565b34801561047f57600080fd5b5061022861048e3660046129d9565b610d35565b34801561049f57600080fd5b506104b36104ae3660046129f4565b610db5565b60405161026a9190612b29565b3480156104cc57600080fd5b50610260606481565b3480156104e157600080fd5b506104f56104f0366004612b6d565b610e63565b604051901515815260200161026a565b34801561051157600080fd5b50610228611425565b34801561052657600080fd5b506102606105353660046129d9565b60076020526000908152604090205481565b34801561055357600080fd5b50610228611439565b34801561056857600080fd5b50610228610577366004612ba9565b611481565b34801561058857600080fd5b506102cb611528565b34801561059d57600080fd5b506102606105ac3660046129a6565b61155d565b3480156105bd57600080fd5b5061026060005481565b3480156105d357600080fd5b506102606105e23660046129d9565b6001600160a01b031660009081526008602052604090205490565b34801561060957600080fd5b5061062e604051806040016040528060058152602001640352e302e360dc1b81525081565b60405161026a9190612be6565b34801561064757600080fd5b5061065b6106563660046129f4565b61162e565b60405161026a9190612c19565b34801561067457600080fd5b506102606106833660046129a6565b6116f6565b34801561069457600080fd5b506102286106a33660046129d9565b611741565b3480156106b457600080fd5b506106c86106c33660046129a6565b611a1f565b6040805192835260208301919091520161026a565b3480156106e957600080fd5b506102cb611a69565b3480156106fe57600080fd5b506001546102cb906001600160a01b031681565b34801561071e57600080fd5b5061022861072d3660046129d9565b611a92565b61073a611b17565b6001600160a01b0383166107695760405162461bcd60e51b815260040161076090612c68565b60405180910390fd5b6001546040805163ce7b6afb60e01b815290516000926001600160a01b03169163ce7b6afb9160048083019260209291908290030181865afa1580156107b3573d6000803e3d6000fd5b505050506040513d601f19601f820116820180604052508101906107d79190612c9f565b9050600081116108295760405162461bcd60e51b815260206004820152601e60248201527f4e6f206163746976652076616c696461746f727320617661696c61626c6500006044820152606401610760565b6001600160a01b0384166000908152600760205260408120549003610864576001600160a01b03841660009081526007602052604090208390555b826000036108f6576000849050806001600160a01b031663766718086040518163ffffffff1660e01b8152600401606060405180830381865afa1580156108af573d6000803e3d6000fd5b505050506040513d601f19601f820116820180604052508101906108d39190612cb8565b95505050836108f45760405162461bcd60e51b815260040161076090612ce6565b505b8160000361090957610906611b49565b91505b610914848484611bb7565b61091e8484611d98565b6040805183815242602082015290810182905283906001600160a01b038616907f70b2b606d43f8ee9be128a33fe6c3c9d86a289295f63208ce59ed16ae50c81009060600160405180910390a350505050565b6001600160a01b0382166000908152600860205260408120548103610998575060006109c0565b6001600160a01b0383166000908152600860205260409020546109bd90849084611e9f565b90505b92915050565b6001600160a01b0382166000908152600760205260408120548210156109fe5760405162461bcd60e51b815260040161076090612d2f565b506001600160a01b03919091166000908152600560209081526040808320938352929052205490565b6001600160a01b0381166000908152600860205260408120548103610a4e57506000919050565b506001600160a01b031660009081526005602090815260408083206008835281842054845290915290205490565b610a84611b17565b6001600160a01b038116610ada5760405162461bcd60e51b815260206004820152601e60248201527f496e76616c69642056616c696461746f725374617465206164647265737300006044820152606401610760565b600180546001600160a01b038381166001600160a01b0319831681179093556040519116919082907f2e62dfc1c928faedabd7a0f5935b9e6ee673f5d7966cc9bdde0533b29cfc4b9390600090a35050565b7ff0c57e16840df040f15088dc2f81fe391c3923bec73e23a9662efc9c229c6a008054600160401b810460ff16159067ffffffffffffffff16600081158015610b725750825b905060008267ffffffffffffffff166001148015610b8f5750303b155b905081158015610b9d575080155b15610bbb5760405163f92ee8a960e01b815260040160405180910390fd5b845467ffffffffffffffff191660011785558315610be557845460ff60401b1916600160401b1785555b610bee87611fbc565b610bf6611fcd565b6001600160a01b038616610c4c5760405162461bcd60e51b815260206004820152601e60248201527f496e76616c69642056616c696461746f725374617465206164647265737300006044820152606401610760565b600180546001600160a01b0319166001600160a01b038816179055600a6000558315610cb257845460ff60401b19168555604051600181527fc7f505b2f371ae2175ee4913f4499e1f2633a7b5936321eed1cdaeb6115181d29060200160405180910390a15b50505050505050565b610cc3611fd5565b610ccc8261207a565b610cd68282612082565b5050565b6000610ce4612144565b50600080516020612e1183398151915290565b60066020528260005260406000206020528160005260406000208181548110610d1f57600080fd5b9060005260206000200160009250925050505481565b610d3d611b17565b6001600160a01b038116610d935760405162461bcd60e51b815260206004820152601d60248201527f496e76616c69642050726f746f636f6c537461746520616464726573730000006044820152606401610760565b600280546001600160a01b0319166001600160a01b0392909216919091179055565b6001600160a01b038216600090815260076020526040902054606090821015610df05760405162461bcd60e51b815260040161076090612d2f565b6001600160a01b038316600090815260066020908152604080832085845282529182902080548351818402810184019094528084529091830182828015610e5657602002820191906000526020600020905b815481526020019060010190808311610e42575b5050505050905092915050565b60006001600160a01b038416610e8b5760405162461bcd60e51b815260040161076090612c68565b6001600160a01b038216610edd5760405162461bcd60e51b815260206004820152601960248201527815985b1a59185d1bdc881b9bdd081a5b9a5d1a585b1a5e9959603a1b6044820152606401610760565b60008490506000816001600160a01b031663766718086040518163ffffffff1660e01b8152600401606060405180830381865afa158015610f22573d6000803e3d6000fd5b505050506040513d601f19601f82011682018060405250810190610f469190612cb8565b9250505080600003610fa45760405162461bcd60e51b815260206004820152602160248201527f4e6f2065706f636820617661696c61626c6520696e2064617461206d61726b656044820152601d60fa1b6064820152608401610760565b80851115610fe95760405162461bcd60e51b8152602060048201526012602482015271115c1bd8da081b9bdd081c995b19585cd95960721b6044820152606401610760565b6001600160a01b0386166000908152600460209081526040808320888452909152812054900361105b5760405162461bcd60e51b815260206004820152601760248201527f5072696f726974696573206e6f742061737369676e65640000000000000000006044820152606401610760565b600154604051635766778d60e11b81526001600160a01b038681166004830152600092169063aeccef1a90602401602060405180830381865afa1580156110a6573d6000803e3d6000fd5b505050506040513d601f19601f820116820180604052508101906110ca9190612c9f565b9050806000036111185760405162461bcd60e51b815260206004820152601960248201527815985b1a59185d1bdc881b9bdd081a5b9a5d1a585b1a5e9959603a1b6044820152606401610760565b60405163cde036c960e01b81526001600160a01b03881660048201526024810187905260448101829052600090309063cde036c990606401602060405180830381865afa15801561116d573d6000803e3d6000fd5b505050506040513d601f19601f820116820180604052508101906111919190612c9f565b9050806000036111f55760405162461bcd60e51b815260206004820152602960248201527f56616c696461746f72206e6f7420616c6c6f77656420746f207375626d6974206044820152680ccdee440cae0dec6d60bb1b6064820152608401610760565b604051631c4a114760e11b8152600481018890526000906001600160a01b03861690633894228e90602401606060405180830381865afa15801561123d573d6000803e3d6000fd5b505050506040513d601f19601f820116820180604052508101906112619190612cb8565b505090506000806000876001600160a01b031663331bce2d6040518163ffffffff1660e01b8152600401606060405180830381865afa1580156112a8573d6000803e3d6000fd5b505050506040513d601f19601f820116820180604052508101906112cc9190612cb8565b92509250925060008086600103611305576112e78587612d71565b9150836112f48688612d71565b6112fe9190612d71565b905061136d565b6000611312600189612d84565b61131c9085612d97565b9050808561132a888a612d71565b6113349190612d71565b61133e9190612d71565b925061134a8885612d97565b85611355888a612d71565b61135f9190612d71565b6113699190612d71565b9150505b42828110156113be5760405162461bcd60e51b815260206004820152601a60248201527f5375626d697373696f6e2077696e646f77206e6f74206f70656e0000000000006044820152606401610760565b8181111561140e5760405162461bcd60e51b815260206004820152601860248201527f5375626d697373696f6e2077696e646f7720636c6f73656400000000000000006044820152606401610760565b60019b5050505050505050505050505b9392505050565b61142d611b17565b611437600061218d565b565b3380611443611a69565b6001600160a01b0316146114755760405163118cdaa760e01b81526001600160a01b0382166004820152602401610760565b61147e8161218d565b50565b611489611b17565b600081116114f15760405162461bcd60e51b815260206004820152602f60248201527f56616c696461746f72207072696f7269747920636f756e74206d75737420626560448201526e02067726561746572207468616e203608c1b6064820152608401610760565b600080548282556040519091829184917f4888e1660662fe35da569b588a88895e344af1acce64cb13e8fe2235c1a943d891a35050565b6000807f9016d09d72d40fdae2fd8ceac6b6234c7706214fd39c1cd1e609a0528c1993005b546001600160a01b031692915050565b6001600160a01b0383166000908152600760205260408120548310156115955760405162461bcd60e51b815260040161076090612d2f565b6001600160a01b03841660009081526004602090815260408083208684529091528120905b815481101561162257838282815481106115d6576115d6612dae565b9060005260206000209060020201600001540361161a578181815481106115ff576115ff612dae565b9060005260206000209060020201600101549250505061141e565b6001016115ba565b50600095945050505050565b6001600160a01b0382166000908152600760205260409020546060908210156116695760405162461bcd60e51b815260040161076090612d2f565b6001600160a01b0383166000908152600460209081526040808320858452825280832080548251818502810185019093528083529193909284015b828210156116ea578382906000526020600020906002020160405180604001604052908160008201548152602001600182015481525050815260200190600101906116a4565b50505050905092915050565b6001600160a01b03831660009081526007602052604081205483101561172e5760405162461bcd60e51b815260040161076090612d2f565b611739848484611e9f565b949350505050565b6002546001600160a01b03166117995760405162461bcd60e51b815260206004820152601d60248201527f50726f746f636f6c5374617465206e6f7420696e697469616c697a65640000006044820152606401610760565b6117a1611528565b6001600160a01b0316336001600160a01b031614806117ca57506002546001600160a01b031633145b6117fc5760405162461bcd60e51b8152602060048201526003602482015262114d0d60ea1b6044820152606401610760565b6001600160a01b0381166118225760405162461bcd60e51b815260040161076090612c68565b6001546040805163ce7b6afb60e01b815290516000926001600160a01b03169163ce7b6afb9160048083019260209291908290030181865afa15801561186c573d6000803e3d6000fd5b505050506040513d601f19601f820116820180604052508101906118909190612c9f565b9050600081116118e25760405162461bcd60e51b815260206004820152601e60248201527f4e6f206163746976652076616c696461746f727320617661696c61626c6500006044820152606401610760565b60008290506000816001600160a01b031663766718086040518163ffffffff1660e01b8152600401606060405180830381865afa158015611927573d6000803e3d6000fd5b505050506040513d601f19601f8201168201806040525081019061194b9190612cb8565b925050506000811161196f5760405162461bcd60e51b815260040161076090612ce6565b6001600160a01b03841660009081526007602052604081205490036119aa576001600160a01b03841660009081526007602052604090208190555b60006119b4611b49565b90506119c1858383611bb7565b6119cb8583611d98565b6040805182815242602082015290810185905282906001600160a01b038716907f70b2b606d43f8ee9be128a33fe6c3c9d86a289295f63208ce59ed16ae50c81009060600160405180910390a35050505050565b60046020528260005260406000206020528160005260406000208181548110611a4757600080fd5b6000918252602090912060029091020180546001909101549093509150839050565b6000807f237e158222e3e6968b72b9db0d8043aacf074ad9f650f0d1606b4d82ee432c0061154d565b611a9a611b17565b7f237e158222e3e6968b72b9db0d8043aacf074ad9f650f0d1606b4d82ee432c0080546001600160a01b0319166001600160a01b0383169081178255611ade611528565b6001600160a01b03167f38d16b8cac22d99fc7c124b9cd0de2d3fa1faef420bfe791d8c362d765e2270060405160405180910390a35050565b33611b20611528565b6001600160a01b0316146114375760405163118cdaa760e01b8152336004820152602401610760565b60004342611b58600183612d84565b604080516020810194909452830191909152406060808301919091526bffffffffffffffffffffffff1941821b811660808401523390911b16609482015260a8016040516020818303038152906040528051906020012060001c905090565b6001546040805163ce7b6afb60e01b815290516000926001600160a01b03169163ce7b6afb9160048083019260209291908290030181865afa158015611c01573d6000803e3d6000fd5b505050506040513d601f19601f82011682018060405250810190611c259190612c9f565b905080600003611c355750505050565b6001600160a01b03841660008181526005602090815260408083208784528252808320859055928252600681528282208683529052908120611c7691612917565b60005b81811015611d29576001600160a01b03858116600090815260066020908152604080832088845290915290819020600154915163029ec98f60e31b815260048101859052909291909116906314f64c7890602401602060405180830381865afa158015611cea573d6000803e3d6000fd5b505050506040513d601f19601f82011682018060405250810190611d0e9190612c9f565b81546001818101845560009384526020909320015501611c79565b506001600160a01b0384166000908152600860205260409020839055611d4f84826121c5565b60008160005411611d6257600054611d64565b815b905080600003611d75575050505050565b6000611d8183856121fc565b9050611d90868683858761230b565b505050505050565b6001600160a01b038216600090815260076020526040902054611dbd90606490612d71565b8110610cd6576001600160a01b0382166000908152600760209081526040808320546004835281842081855290925282209091611dfa9190612935565b6001600160a01b03831660008181526005602090815260408083208584528252808320839055928252600681528282208483529052908120611e3b91612917565b6001600160a01b0383166000908152600760205260408120805491611e5f83612dc4565b909155505060405181906001600160a01b038516907f1725dd7475685713a474ee32b8fff91f113bacb10d090dac19c47c51f493fcfa90600090a3505050565b6001600160a01b038316600090815260076020526040812054831015611ec75750600061141e565b6001600160a01b03841660009081526006602090815260408083208684529091528120905b81548110156116225783828281548110611f0857611f08612dae565b906000526020600020015403611fb4576001600160a01b03861660009081526004602090815260408083208884529091528120905b8154811015611fa75782828281548110611f5957611f59612dae565b90600052602060002090600202016000015403611f9f57818181548110611f8257611f82612dae565b90600052602060002090600202016001015494505050505061141e565b600101611f3d565b506000935050505061141e565b600101611eec565b611fc46123d1565b61147e8161241a565b6114376123d1565b306001600160a01b037f000000000000000000000000000000000000000000000000000000000000000016148061205c57507f00000000000000000000000000000000000000000000000000000000000000006001600160a01b0316612050600080516020612e11833981519152546001600160a01b031690565b6001600160a01b031614155b156114375760405163703e46dd60e11b815260040160405180910390fd5b61147e611b17565b816001600160a01b03166352d1902d6040518163ffffffff1660e01b8152600401602060405180830381865afa9250505080156120dc575060408051601f3d908101601f191682019092526120d991810190612c9f565b60015b61210457604051634c9c8ce360e01b81526001600160a01b0383166004820152602401610760565b600080516020612e11833981519152811461213557604051632a87526960e21b815260048101829052602401610760565b61213f838361244c565b505050565b306001600160a01b037f000000000000000000000000000000000000000000000000000000000000000016146114375760405163703e46dd60e11b815260040160405180910390fd5b7f237e158222e3e6968b72b9db0d8043aacf074ad9f650f0d1606b4d82ee432c0080546001600160a01b0319168155610cd6826124a2565b60005b8181101561213f576001600160a01b03831660009081526003602090815260408083208484529091528120556001016121c8565b60608267ffffffffffffffff81111561221757612217612a51565b60405190808252806020026020018201604052801561225c57816020015b60408051808201909152600080825260208201528152602001906001900390816122355790505b50905060005b838110156122dd578082828151811061227d5761227d612dae565b60209081029190910181015191909152604080519182018590528101829052606001604051602081830303815290604052805190602001208282815181106122c7576122c7612dae565b6020908102919091018101510152600101612262565b50600a831115612302576122fd8160006122f8600187612d84565b612513565b6109c0565b6109c08161255b565b60005b828110801561231c57508181105b15611d9057600084828151811061233557612335612dae565b602002602001015160000151905060008260016123529190612d71565b6001600160a01b03891660008181526003602090815260408083208784528252808320859055928252600481528282208b835281528282208351808501909452958352828101938452855460018181018855968352912091516002909102909101908155905192019190915550806123c981612dc4565b91505061230e565b7ff0c57e16840df040f15088dc2f81fe391c3923bec73e23a9662efc9c229c6a0054600160401b900460ff1661143757604051631afcd79f60e31b815260040160405180910390fd5b6124226123d1565b6001600160a01b03811661147557604051631e4fbdf760e01b815260006004820152602401610760565b61245582612647565b6040516001600160a01b038316907fbc7cd75a20ee27fd9adebab32041f755214dbc6bffa90cc0225b39da2e5c2d3b90600090a280511561249a5761213f82826126ac565b610cd6612722565b7f9016d09d72d40fdae2fd8ceac6b6234c7706214fd39c1cd1e609a0528c19930080546001600160a01b031981166001600160a01b03848116918217845560405192169182907f8be0079c531659141344cd1fd0a4f28419497f9722a3daafe3b4186f6b6457e090600090a3505050565b8082101561213f576000612528848484612741565b905080156125405761254084846122f8600185612d84565b6125558461254f836001612d71565b84612513565b50505050565b805160015b8181101561213f57600083828151811061257c5761257c612dae565b6020026020010151905060008290505b6000811180156125c657506020820151856125a8600184612d84565b815181106125b8576125b8612dae565b602002602001015160200151115b1561261f57846125d7600183612d84565b815181106125e7576125e7612dae565b602002602001015185828151811061260157612601612dae565b6020026020010181905250808061261790612ddd565b91505061258c565b8185828151811061263257612632612dae565b60209081029190910101525050600101612560565b806001600160a01b03163b60000361267d57604051634c9c8ce360e01b81526001600160a01b0382166004820152602401610760565b600080516020612e1183398151915280546001600160a01b0319166001600160a01b0392909216919091179055565b6060600080846001600160a01b0316846040516126c99190612df4565b600060405180830381855af49150503d8060008114612704576040519150601f19603f3d011682016040523d82523d6000602084013e612709565b606091505b5091509150612719858383612892565b95945050505050565b34156114375760405163b398979f60e01b815260040160405180910390fd5b60008084838151811061275657612756612dae565b6020908102919091018101510151905083805b8481101561281a578287828151811061278457612784612dae565b60200260200101516020015111612812578681815181106127a7576127a7612dae565b60200260200101518783815181106127c1576127c1612dae565b60200260200101518884815181106127db576127db612dae565b602002602001018984815181106127f4576127f4612dae565b602002602001018290528290525050818061280e90612dc4565b9250505b600101612769565b5085848151811061282d5761282d612dae565b602002602001015186828151811061284757612847612dae565b602002602001015187838151811061286157612861612dae565b6020026020010188878151811061287a5761287a612dae565b60209081029190910101919091525295945050505050565b6060826128a7576128a2826128ee565b61141e565b81511580156128be57506001600160a01b0384163b155b156128e757604051639996b31560e01b81526001600160a01b0385166004820152602401610760565b508061141e565b8051156128fe5780518082602001fd5b60405163d6bda27560e01b815260040160405180910390fd5b508054600082559060005260206000209081019061147e9190612956565b508054600082556002029060005260206000209081019061147e919061296f565b5b8082111561296b5760008155600101612957565b5090565b5b8082111561296b5760008082556001820155600201612970565b80356001600160a01b03811681146129a157600080fd5b919050565b6000806000606084860312156129bb57600080fd5b6129c48461298a565b95602085013595506040909401359392505050565b6000602082840312156129eb57600080fd5b6109bd8261298a565b60008060408385031215612a0757600080fd5b612a108361298a565b946020939093013593505050565b60008060408385031215612a3157600080fd5b612a3a8361298a565b9150612a486020840161298a565b90509250929050565b634e487b7160e01b600052604160045260246000fd5b60008060408385031215612a7a57600080fd5b612a838361298a565b9150602083013567ffffffffffffffff80821115612aa057600080fd5b818501915085601f830112612ab457600080fd5b813581811115612ac657612ac6612a51565b604051601f8201601f19908116603f01168101908382118183101715612aee57612aee612a51565b81604052828152886020848701011115612b0757600080fd5b8260208601602083013760006020848301015280955050505050509250929050565b6020808252825182820181905260009190848201906040850190845b81811015612b6157835183529284019291840191600101612b45565b50909695505050505050565b600080600060608486031215612b8257600080fd5b612b8b8461298a565b925060208401359150612ba06040850161298a565b90509250925092565b600060208284031215612bbb57600080fd5b5035919050565b60005b83811015612bdd578181015183820152602001612bc5565b50506000910152565b6020815260008251806020840152612c05816040850160208701612bc2565b601f01601f19169190910160400192915050565b602080825282518282018190526000919060409081850190868401855b82811015612c5b57815180518552860151868501529284019290850190600101612c36565b5091979650505050505050565b6020808252601b908201527f496e76616c69642064617461206d61726b657420616464726573730000000000604082015260600190565b600060208284031215612cb157600080fd5b5051919050565b600080600060608486031215612ccd57600080fd5b8351925060208401519150604084015190509250925092565b60208082526029908201527f4e6f2063757272656e742065706f636820617661696c61626c6520696e2064616040820152681d18481b585c9ad95d60ba1b606082015260800190565b60208082526012908201527145706f6368206f7574206f662072616e676560701b604082015260600190565b634e487b7160e01b600052601160045260246000fd5b808201808211156109c0576109c0612d5b565b818103818111156109c0576109c0612d5b565b80820281158282048414176109c0576109c0612d5b565b634e487b7160e01b600052603260045260246000fd5b600060018201612dd657612dd6612d5b565b5060010190565b600081612dec57612dec612d5b565b506000190190565b60008251612e06818460208701612bc2565b919091019291505056fe360894a13ba1a3210667c828492db98dca3e2076cc3735a920a3ca505d382bbca26469706673582212205229a2773fc97239e8aefeca4d3a2d45b7b9c3c9aa1bca64778ac657f04032c164736f6c63430008180033",
  "linkReferences": {},
  "deployedLinkReferences": {}
}